:0400000013EF00F00A
:060008005F82D5ED13F04C
:100018005F80E0CF80F080C0E0FF5F901000E3EFEA
:0200280015F0D1
:10100000003132333435363738392A3023256C6491
:0510100000256900004D
:1010160001016A51800B736F6A516A25756F69AF5A
:1010260017EF08F019EF08F01AEF08F075817551FF
:10103600D8B420EF08F022EF08F037EF08F0752952
:10104600D8A428EF08F02AEF08F032EF08F0000ED7
:10105600676F000E686F000E696F000E6A6F698F0A
:10106600000E6A6F3FEF08F0000E676F000E686FA4
:10107600000E696F000E6A6F6E51800B746F7351AC
:101086007419D8B449EF08F04BEF08F04CEF08F0AC
:10109600738D6E516E25746F6DAF54EF08F056EF79
:1010A60008F057EF08F074817451D8B45DEF08F07A
:1010B6005FEF08F074EF08F07429D8A465EF08F024
:1010C60067EF08F06FEF08F0000E6B6F000E6C6FA5
:1010D600000E6D6F000E6E6F6D8F000E6E6F7CEFE3
:1010E60008F0000E6B6F000E6C6F000E6D6F000E39
:1010F6006E6F7551745DD8B083EF08F085EF08F018
:10110600ACEF08F073AD8AEF08F08CEF08F08EEFC5
:1011160008F0800E731B75C176F174C175F176C146
:1011260074F167C176F16BC167F176C16BF168C185
:1011360076F16CC168F176C16CF169C176F16DC169
:1011460069F176C16DF16AC176F16EC16AF176C157
:101156006EF1000E766F755174C16FF1706B6F5F33
:10116600000E705B70BFC1EF08F0705109E11A0EF6
:101176006F5DD8A0C1EF08F0C3EF08F0FAEF08F0F2
:101186006751681169116A11D8A4CCEF08F0CFEF46
:1011960008F0010ED0EF08F0000E766F000E676FB4
:1011A600000E686F000E696F000E6A6F74C175F1EC
:1011B60003EF09F076A1E2EF08F0E4EF08F0EAEFBA
:1011C60008F0D89076310109766FECEF08F0D890E8
:1011D600763367A1F1EF08F0F3EF08F0F4EF08F0CB
:1011E600768F6A356A33693368336733752B745182
:1011F600755DD8A001EF09F003EF09F0DDEF08F007
:1012060073BD08EF09F00AEF09F04AEF09F07551CE
:10121600D8A410EF09F012EF09F01CEF09F0000E48
:10122600676F000E686F000E696F000E6A6F6BEFD6
:101236000AF06B5167276C5168236D5169236E5113
:101246006A236AA129EF09F02BEF09F0D7EF09F01D
:1012560076A130EF09F032EF09F038EF09F0D890B7
:1012660076310109766F3AEF09F0D890763367A1A7
:101276003FEF09F041EF09F042EF09F0768F6A354A
:101286006A33693368336733752BD7EF09F06B51CF
:10129600675D6C5168596D5169596A51800A6F6F63
:1012A6006E51800A6F59D8B05BEF09F05DEF09F017
:1012B60088EF09F067516B5D6F6F68516C59706FFD
:1012C60069516D59716F6A516E59726FFF0E6F25B4
:1012D600676FFF0E7021686FFF0E7121696FFF0E39
:1012E60072216A6F800E731B766D7651D8A47EEFDD
:1012F60009F080EF09F090EF09F0010E6727000E64
:10130600682369236A2390EF09F06B51675F6C517C
:10131600685B6D51695B6E516A5B67516811691153
:101326006A11D8A499EF09F09BEF09F0D0EF09F004
:101336007651D8A4A1EF09F0A3EF09F0D0EF09F098
:10134600000E676F000E686F000E696F000E6A6F01
:101356006BEF0AF0D8906737683769376A3776AF28
:10136600B7EF09F0B9EF09F0BAEF09F0678176A196
:10137600BFEF09F0C1EF09F0C5EF09F0D880763765
:10138600C7EF09F0D89076377551D8B4CDEF09F08C
:10139600CFEF09F0D0EF09F0750769AFD5EF09F087
:1013A600D7EF09F0ADEF09F0000E746F76AFDEEF00
:1013B60009F0E0EF09F0F8EF09F076C16FF17F0E62
:1013C6006F17D8B4E9EF09F0EBEF09F0EFEF09F08A
:1013D600010E746FF8EF09F067A1F4EF09F0F6EF6C
:1013E60009F0F8EF09F0EBEF09F07451D8B4FEEF0D
:1013F60009F000EF0AF02BEF0AF0010E6727000E46
:10140600682369236A236AA10BEF0AF00DEF0AF03D
:101416002BEF0AF067C16FF168C170F169C171F114
:101426006AC172F172357233713370336F336FC1C3
:1014360067F170C168F171C169F172C16AF175290C
:10144600D8B428EF0AF02AEF0AF02BEF0AF0752B32
:101456007529D8B431EF0AF033EF0AF03BEF0AF002
:101466007551D8A439EF0AF03BEF0AF04DEF0AF0B8
:10147600000E676F000E686F000E696F000E6A6FD0
:101486007551D8A449EF0AF04BEF0AF04DEF0AF078
:10149600000E736F75A152EF0AF054EF0AF057EF82
:1014A6000AF0698F58EF0AF0699FD89075316A6F14
:1014B60073AF60EF0AF062EF0AF063EF0AF06A8F2B
:1014C60067C167F168C168F169C169F16AC16AF10A
:1014D60012000450800B0D6E045004240F6E03AEF0
:1014E60077EF0AF079EF0AF07AEF0AF00F800F50E3
:1014F600D8B480EF0AF082EF0AF097EF0AF00F28CF
:10150600D8A488EF0AF08AEF0AF092EF0AF0000EEC
:10151600016E000E026E000E036E000E046E038E48
:10152600000E046E9FEF0AF0000E016E000E026EB2
:10153600000E036E000E046E0850800B0E6E0D50EA
:101546000E18D8B4A9EF0AF0ABEF0AF0ACEF0AF028
:101556000D8C085008240E6E07AEB4EF0AF0B6EFF5
:101566000AF0B7EF0AF00E800E50D8B4BDEF0AF0BD
:10157600BFEF0AF0D4EF0AF00E28D8A4C5EF0AF0A0
:10158600C7EF0AF0CFEF0AF0000E056E000E066EEA
:10159600000E076E000E086E078E000E086EDCEF5A
:1015A6000AF0000E056E000E066E000E076E000EA7
:1015B600086E0F500E5CD8B0E3EF0AF0E5EF0AF0C4
:1015C6000CEF0BF00DACEAEF0AF0ECEF0AF0EEEFE1
:1015D6000AF0800E0D1A0FC010F00EC00FF010C0EA
:1015E6000EF001C010F005C001F010C005F002C0F9
:1015F60010F006C002F010C006F003C010F007C0DD
:1016060003F010C007F004C010F008C004F010C0CA
:1016160008F0000E106E0F500EC009F00A6A095E3F
:10162600000E0A5A0ABE21EF0BF00A5009E11A0E03
:10163600095CD8A021EF0BF023EF0BF05AEF0BF06B
:101646000150021003100410D8A42CEF0BF02FEF5A
:101656000BF0010E30EF0BF0000E106E000E016E57
:10166600000E026E000E036E000E046E0EC00FF02A
:1016760063EF0BF010A042EF0BF044EF0BF04AEFD4
:101686000BF0D89010300109106E4CEF0BF0D8908B
:10169600103201A051EF0BF053EF0BF054EF0BF0AB
:1016A600108E043404320332023201320F2A0E50F5
:1016B6000F5CD8A061EF0BF063EF0BF03DEF0BF082
:1016C6000DBC68EF0BF06AEF0BF0AAEF0BF00F50B2
:1016D600D8A470EF0BF072EF0BF07CEF0BF0000E5E
:1016E600016E000E026E000E036E000E046ECBEF4E
:1016F6000CF005500126065002220750032208501E
:10170600042204A089EF0BF08BEF0BF037EF0CF0FF
:1017160010A090EF0BF092EF0BF098EF0BF0D89033
:1017260010300109106E9AEF0BF0D890103201A01C
:101736009FEF0BF0A1EF0BF0A2EF0BF0108E04342D
:1017460004320332023201320F2A37EF0CF0055011
:10175600015C06500258075003580450800A096E6F
:101766000850800A0958D8B0BBEF0BF0BDEF0BF05C
:10177600E8EF0BF00150055C096E025006580A6E40
:10178600035007580B6E045008580C6EFF0E0924C0
:10179600016EFF0E0A20026EFF0E0B20036EFF0E77
:1017A6000C20046E800E0D1A106C1050D8A4DEEFBB
:1017B6000BF0E0EF0BF0F0EF0BF0010E0126000E40
:1017C600022203220422F0EF0BF00550015E0650C0
:1017D600025A0750035A0850045A015002100310C7
:1017E6000410D8A4F9EF0BF0FBEF0BF030EF0CF080
:1017F6001050D8A401EF0CF003EF0CF030EF0CF012
:10180600000E016E000E026E000E036E000E046ED8
:10181600CBEF0CF0D890013602360336043610AE04
:1018260017EF0CF019EF0CF01AEF0CF0018010A076
:101836001FEF0CF021EF0CF025EF0CF0D8801036DE
:1018460027EF0CF0D89010360F50D8B42DEF0CF0CF
:101856002FEF0CF030EF0CF00F0603AE35EF0CF067
:1018660037EF0CF00DEF0CF0000E0E6E10AE3EEFE3
:101876000CF040EF0CF058EF0CF010C009F07F0EA2
:101886000916D8B449EF0CF04BEF0CF04FEF0CF003
:10189600010E0E6E58EF0CF001A054EF0CF056EF4F
:1018A6000CF058EF0CF04BEF0CF00E50D8B45EEF86
:1018B6000CF060EF0CF08BEF0CF0010E0126000E21
:1018C60002220322042204A06BEF0CF06DEF0CF051
:1018D6008BEF0CF001C009F002C00AF003C00BF058
:1018E60004C00CF00C340C320B320A32093209C037
:1018F60001F00AC002F00BC003F00CC004F00F2880
:10190600D8B488EF0CF08AEF0CF08BEF0CF00F2AAE
:101916000F28D8B491EF0CF093EF0CF09BEF0CF07E
:101926000F50D8A499EF0CF09BEF0CF0ADEF0CF034
:10193600000E016E000E026E000E036E000E046EA7
:101946000F50D8A4A9EF0CF0ABEF0CF0ADEF0CF0F4
:10195600000E0D6E0FA0B2EF0CF0B4EF0CF0B7EF67
:101966000CF0038EB8EF0CF0039ED8900F30046E87
:101976000DAEC0EF0CF0C2EF0CF0C3EF0CF0048E0E
:1019860001C001F002C002F003C003F004C004F07D
:10199600120000019251800B9F6F92519225A66F03
:1019A60091AFD8EF0CF0DAEF0CF0DBEF0CF0A6817C
:1019B600A651D8B4E1EF0CF0E3EF0CF0F8EF0CF021
:1019C600A629D8A4E9EF0CF0EBEF0CF0F3EF0CF03E
:1019D600000E8F6F000E906F000E916F000E926FCB
:1019E600918F000E926F00EF0DF0000E8F6F000EBC
:1019F600906F000E916F000E926F9651800B9F1B99
:101A060096519625A76F95AF0BEF0DF00DEF0DF0E4
:101A16000EEF0DF0A781A751D8B414EF0DF016EF15
:101A26000DF02BEF0DF0A729D8A41CEF0DF01EEF3B
:101A36000DF026EF0DF0000E936F000E946F000E62
:101A4600956F000E966F958F000E966F33EF0DF023
:101A5600000E936F000E946F000E956F000E966F3A
:101A66009351941195119611D8A43CEF0DF03EEFC9
:101A76000DF056EF0DF0000E8F6F000E906F000EFA
:101A8600916F000E926F800E91137F0E92139F51ED
:101A960092138FC08FF090C090F091C091F092C0D9
:101AA60092F099EF0EF0A651D8A45CEF0DF05EEF20
:101AB6000DF068EF0DF0000E8F6F000E906F000EA8
:101AC600916F000E926F99EF0EF0A751A6C097F096
:101AD600986B975F000E985B7F0E9725A06F000EA0
:101AE6009821A16F8FC09BF090C09CF091C09DF093
:101AF60092C09EF0000E8F6F000E906F000E916FD9
:101B0600000E926F000EA26F000EA36F000EA46F60
:101B1600000EA56F000EA76FC9EF0DF0A751D8B440
:101B260097EF0DF099EF0DF0B0EF0DF0D8909B37D1
:101B36009C379D379E37D8908F379037913792379D
:101B4600A5AFA8EF0DF0AAEF0DF0ABEF0DF08F816A
:101B5600D890A237A337A437A53793519B5D9451EC
:101B66009C5995519D5996519E59D8A0BDEF0DF09F
:101B7600BFEF0DF0C8EF0DF0A58D93519B5F94510B
:101B86009C5B95519D5B96519E5BA72B190EA76595
:101B9600CFEF0DF0D1EF0DF091EF0DF09B519C11B1
:101BA6009D119E11D8B4DAEF0DF0DCEF0DF0F4EFD5
:101BB6000DF0A281F4EF0DF0D8908F379037913762
:101BC6009237A5AFE9EF0DF0EBEF0DF0ECEF0DF06E
:101BD6008F81D890A237A337A437A537A007D8A0FE
:101BE600A10791AFF9EF0DF0FBEF0DF0DFEF0DF070
:101BF600000EA76FA5AF02EF0EF004EF0EF028EF70
:101C06000EF0FF0EA215976FFF0EA315986FFF0E2D
:101C1600A415996F7F0EA5159A6F97519811991172
:101C26009A11D8B419EF0EF01BEF0EF01FEF0EF05D
:101C3600010EA76F28EF0EF08FA124EF0EF026EF0E
:101C46000EF028EF0EF01BEF0EF0A751D8B42EEFD2
:101C56000EF030EF0EF054EF0EF0010E8F27000E4F
:101C660090239123922392A13BEF0EF03DEF0EF0CD
:101C760054EF0EF08FC097F090C098F091C099F095
:101C860092C09AF09A359A3399339833973397C01E
:101C96008FF098C090F099C091F09AC092F0A04B46
:101CA600A12BA1BF5FEF0EF0A15108E1A029D8A09A
:101CB6005FEF0EF061EF0EF06CEF0EF0000EA16F0D
:101CC600A069000E8F6F000E906F000E916F000ED0
:101CD600926FA1BF79EF0EF0A15106E1A005D8B031
:101CE60077EF0EF079EF0EF087EF0EF0000EA16F92
:101CF600000EA06F000E8F6F000E906F000E916F9A
:101D0600000E926F000E9F6FA0C0A6F0A6A18EEFE8
:101D16000EF090EF0EF093EF0EF0918F94EF0EF021
:101D2600919FD890A631926F4AEF0DF01200000EE7
:101D36000001AA6F01017F518011D8A4A5EF0EF012
:101D4600A7EF0EF0ACEF0EF0010E0001AA6FDCEF6C
:101D56000FF0C69A20EE0CF07F51D9268051DA2278
:101D6600DF50816FC6508119F00B8119C66E58EF8E
:101D76000FF0000E6B6F000E6C6F800E6D6FBF0E56
:101D86006E6F7FC1D9FF80C1DAFFDECF81F0DECF73
:101D960082F0DECF83F0DECF84F0000EDFEC0FF0B2
:101DA60081C093F082C094F083C095F084C096F011
:101DB600000E00018F6F240E906FF40E916F490E86
:101DC600926FCCEC0CF08FC067F190C068F191C0B7
:101DD60069F192C06AF10BEC08F067C177F168C14E
:101DE60078F169C179F16AC17AF1C3EC12F00101A7
:101DF6007751C86E7BEF0FF020EE0CF07F51D9269D
:101E06008051DA22DF50816F826B8251000AD8B48A
:101E16000FEF0FF0BCEF0EF08151080AD8B4BCEFFB
:101E26000EF0030AD8B47BEF0FF0BCEF0EF0C58EB0
:101E360046EF0FF0C59E46EF0FF0C59E46EF0FF03A
:101E460020EE0DF07F51D9268051DA22DFB62EEF33
:101E56000FF031EF0FF0010E32EF0FF0000E816F31
:101E6600826B8251000AD8B43BEF0FF020EF0FF0DF
:101E76008151000AD8B41DEF0FF0010AD8B41AEF49
:101E86000FF020EF0FF0C69EC69CC68820EE0BF022
:101E96007F51D9268051DA22DF50C86E7BEF0FF0D2
:101EA600010E0001AA6F7BEF0FF020EE0DF07F51BF
:101EB600D9268051DA22DFB063EF0FF066EF0FF01C
:101EC600010E67EF0FF0000E816F826B8251000AE0
:101ED600D8B470EF0FF053EF0FF08151000AD8B469
:101EE60023EF0FF0010AD8B4FFEF0EF053EF0FF017
:101EF6009488948688EF0FF0C78EB2EF0FF0C79ED6
:101F0600B2EF0FF0C79EB2EF0FF0010120EE0DF019
:101F16007F51D9268051DA22DFB294EF0FF097EF86
:101F26000FF0010E98EF0FF0000E816F826B825159
:101F3600000AD8B4A1EF0FF085EF0FF08151000A27
:101F4600D8B482EF0FF0010AD8B47FEF0FF085EF17
:101F56000FF0C78CD5EF0FF0C79CD5EF0FF020EE32
:101F66000DF07F51D9268051DA22DFB4BDEF0FF094
:101F7600C0EF0FF0010EC1EF0FF0000E816F826B04
:101F86008251000AD8B4CAEF0FF0AFEF0FF08151BB
:101F9600000AD8B4AFEF0FF0010AD8B4ACEF0FF0D7
:101FA600AFEF0FF07FC181F080C182F059EC15F0E0
:101FB600C68A0001AA5112000001896F00018951E9
:101FC600D8B4E8EF0FF0EAEF0FF00CEF10F084BF93
:101FD600F1EF0FF0EFEF0FF00CEF10F081C085F08E
:101FE60082C086F083C087F084C088F0851F861F74
:101FF600871F881F852B000E86238723882385C08D
:102006008BF086C08CF087C08DF088C08EF014EF00
:1020160010F081C08BF082C08CF083C08DF084C03C
:102026008EF08151821183118411D8A41DEF10F016
:102036001FEF10F029EF10F0000E816F000E826F77
:10204600000E836F000E846FBAEF10F0960E8A6F43
:1020560033EF10F08A2BD8908E338D338C338B333D
:10206600000E8B15856F000E8C15866F000E8D1574
:10207600876FFE0E8E15886F855186118711881120
:10208600D8A448EF10F04AEF10F02DEF10F058EFFB
:1020960010F08A2B010E8B27000E8C238D238E23A6
:1020A600D8908E338D338C338B33000E8B15856F22
:1020B600000E8C15866F000E8D15876FFF0E8E1520
:1020C600886F8551861187118811D8A46DEF10F09D
:1020D6006FEF10F04CEF10F077EF10F08A07D89002
:1020E6008B378C378D378E378DBF7CEF10F07EEFB8
:1020F60010F086EF10F0020E8A6184EF10F086EF82
:1021060010F071EF10F08AB18BEF10F08DEF10F038
:102116008EEF10F08D9FD8908A338AC085F0866B3B
:10212600876B886B85C088F0876B866B856B85515E
:102136008B1386518C1387518D1388518E138951B9
:10214600D8B4A8EF10F0AAEF10F0B2EF10F084BFE9
:10215600B1EF10F0AFEF10F0B2EF10F08E8F8BC032
:1021660081F08CC082F08DC083F08EC084F01200A6
:10217600096E0950D8B4C2EF10F0C4EF10F0E6EFC4
:1021860010F004BECBEF10F0C9EF10F0E6EF10F040
:1021960001C005F002C006F003C007F004C008F055
:1021A600051E061E071E081E052A000E0622072209
:1021B600082205C00BF006C00CF007C00DF008C0E1
:1021C6000EF0EEEF10F001C00BF002C00CF003C0F1
:1021D6000DF004C00EF00150021003100410D8A434
:1021E600F7EF10F0F9EF10F003EF11F0000E016EAB
:1021F600000E026E000E036E000E046E94EF11F0D8
:10220600960E0A6E0DEF11F00A2AD8900E320D3294
:102216000C320B32000E0B14056E000E0C14066EFB
:10222600000E0D14076EFE0E0E14086E05500610F5
:1022360007100810D8A422EF11F024EF11F007EFD1
:1022460011F032EF11F00A2A010E0B26000E0C22B5
:102256000D220E22D8900E320D320C320B32000EA9
:102266000B14056E000E0C14066E000E0D14076E90
:10227600FF0E0E14086E0550061007100810D8A49D
:1022860047EF11F049EF11F026EF11F051EF11F081
:102296000A06D8900B360C360D360E360DBE56EFA6
:1022A60011F058EF11F060EF11F0020E0A605EEFC8
:1022B60011F060EF11F04BEF11F00AB065EF11F07D
:1022C60067EF11F068EF11F00D9ED8900A320AC040
:1022D60005F0066A076A086A05C008F0076A066A12
:1022E600056A05500B1206500C1207500D120850C5
:1022F6000E120950D8B482EF11F084EF11F08CEF72
:1023060011F004BE8BEF11F089EF11F08CEF11F094
:102316000E8E0BC001F00CC002F00DC003F00EC013
:1023260004F01200000E0001886F81518211D8B4AA
:102336009FEF11F0A1EF11F0B2EF11F081C0D9FFBC
:1023460082C0DAFFDF30E832E832070B836F070E10
:102356008365B0EF11F0B2EF11F00FEF12F0010E3E
:10236600886F30EF12F081C0D9FF82C0DAFFDF300C
:10237600E832E832070B836F010E846F832BC6EFBA
:1023860011F0D8908437832FC4EF11F000018451E7
:10239600FF0A856F81C0D9FF82C0DAFFDF50070BC5
:1023A600020DF350DF0FD96EDA6ADECF86F0DDCF8D
:1023B60087F086C0D9FF87C0DAFF8551DF1630EF78
:1023C60012F081C0D9FF82C0DAFFDF30E832E8328E
:1023D600070B836F010E846F832BF4EF11F0D890F7
:1023E6008437832FF2EF11F081C0D9FF82C0DAFF64
:1023F600DF50070B020DF350DF0FD96EDA6ADECF1E
:1024060085F0DDCF86F085C0D9FF86C0DAFF0001F2
:102416008451DF1230EF12F081C0D9FF82C0DAFF9B
:10242600DFBC18EF12F01BEF12F0010E1CEF12F0DA
:10243600000E836F846B8451000AD8B425EF12F026
:10244600B2EF11F08351000AD8B4B6EF11F0010AC9
:10245600D8B4E4EF11F0B2EF11F088511200000E7B
:102466000001896F81518211D8B43CEF12F03EEF22
:1024760012F04FEF12F081C0D9FF82C0DAFFDF30D1
:10248600E832E832070B846F070E84654DEF12F0D1
:102496004FEF12F0ACEF12F0010E896FC1EF12F0A0
:1024A60081C0D9FF82C0DAFFDF30E832E832070B9D
:1024B600846F010E856F842B63EF12F0D8908537F9
:1024C600842F61EF12F081C0D9FF82C0DAFFDF509E
:1024D600070B020DF350D50FD96EDA6ADECF86F000
:1024E600DDCF87F086C0D9FF87C0DAFF00018551AE
:1024F600DF12C1EF12F081C0D9FF82C0DAFFDF30F0
:10250600E832E832070B846F010E856F842B8EEF5D
:1025160012F0D8908537842F8CEF12F00001855188
:10252600FF0A866F81C0D9FF82C0DAFFDF50070B32
:10253600020DF350D50FD96EDA6ADECF87F0DDCF04
:1025460088F087C0D9FF88C0DAFF8651DF16C1EF51
:1025560012F08351846F856B8551000AD8B4B6EFAB
:1025660012F04FEF12F08451000AD8B47EEF12F049
:10257600010AD8B453EF12F04FEF12F0895112004E
:10258600010179357A350001A96FA951D8A4CEEF9A
:1025960012F0D0EF12F0DBEF12F0000E0101776FB0
:1025A600000E786F000E796F000E7A6F51EF13F000
:1025B60077C17BF178C17CF179C17DF17AC17EF179
:1025C600200EECEF12F00101D8907E337D337C3380
:1025D6007B33E82EE6EF12F07B510001A86F010174
:1025E600798FFF0E7717FF0E7817FF0E7917000EFB
:1025F6007A17960E0001A95FA9BF06EF13F004EF44
:1026060013F01EEF13F0A951800A970FD8B00EEF02
:1026160013F010EF13F012EF13F0D0EF12F00101E8
:10262600D8907A337933783377330001A93F12EFA4
:1026360013F038EF13F01F0EA96524EF13F026EF01
:1026460013F030EF13F0D0EF12F00101D890773786
:10265600783779377A370001A907A951D8A436EF18
:1026660013F038EF13F028EF13F0A851D8B43EEF6B
:1026760013F040EF13F049EF13F001017A1F791FB1
:10268600781F776D000E782379237A2377C177F147
:1026960078C178F179C179F17AC17AF112001B34E7
:1026A6001C34226E2250D8A45BEF13F05DEF13F0BA
:1026B60067EF13F0000E196E000E1A6E000E1B6EF9
:1026C600000E1C6ED4EF13F019C01DF01AC01EF0D8
:1026D6001BC01FF01CC020F0200E77EF13F0D8901F
:1026E60020321F321E321D32E82E72EF13F01D50BB
:1026F600216E1B8EFF0E1916FF0E1A16FF0E1B16E5
:10270600000E1C16960E225E22BE8EEF13F08CEF84
:1027160013F0A4EF13F02250800A970FD8B096EF6B
:1027260013F098EF13F09AEF13F05DEF13F0D890D3
:102736001C321B321A321932223E9AEF13F0BCEFCA
:1027460013F01F0E2264AAEF13F0ACEF13F0B4EFF0
:1027560013F05DEF13F0D89019361A361B361C3677
:1027660022062250D8A4BAEF13F0BCEF13F0AEEF56
:1027760013F02150D8B4C2EF13F0C4EF13F0CCEF2E
:1027860013F01C1E1B1E1A1E196C000E1A221B2289
:102796001C2219C019F01AC01AF01BC01BF01CC06D
:1027A6001CF012000600FACF2CF0FBCF2DF0D9CF8B
:1027B6002EF0DACF2FF09EACE3EF13F0E5EF13F037
:1027C600E7EF13F0BDEC17F0F2A4ECEF13F0EEEF29
:1027D60013F0F0EF13F099EC17F09EA0F5EF13F05D
:1027E600F7EF13F0F9EF13F0ACEC17F09EA2FEEF43
:1027F60013F000EF14F002EF14F0B7EC17F0A1A2FB
:1028060007EF14F009EF14F00BEF14F0A6EC17F035
:102816009DA410EF14F012EF14F01BEF14F09EA419
:1028260017EF14F019EF14F01BEF14F02FEC17F05C
:10283600A1A020EF14F022EF14F024EF14F05EECC8
:1028460017F09DA829EF14F02BEF14F034EF14F0D5
:102856009EA830EF14F032EF14F034EF14F0BBEC16
:1028660017F09DAA39EF14F03BEF14F044EF14F083
:102876009EAA40EF14F042EF14F044EF14F0FDEC82
:1028860016F09EA649EF14F04BEF14F04DEF14F03E
:1028960016EC17F02FC0DAFF2EC0D9FF2DC0FBFFB4
:1028A6002CC0FAFF5F921100492AF80E016E000E45
:1028B600036E000E026E8AEC17F04904D8A466EF88
:1028C60014F068EF14F078EF14F0590E236E010E31
:1028D600246E53C025F054C026F0A1EC15F0BD506F
:1028E600F00B0909BD6EB6EF14F0020E4918D8A414
:1028F6007FEF14F081EF14F0B6EF14F0590E236E4B
:10290600010E246E53C001F054C002F0036A046A3B
:10291600000EBBEC10F001C015F002C016F003C0AB
:1029260017F004C018F0000E116E000E126E7A0E2B
:10293600136E450E146EC0EC16F011C019F012C0DD
:102946001AF013C01BF014C01CF052EC13F019C09F
:1029560025F01AC026F0A1EC15F0BD50F00B0809C1
:10296600BD6E000E496E120000018E51D8B4BEEF46
:1029760014F0C0EF14F0CEEF14F08E51D96EDA6A6F
:10298600DF38070B8F6F070E8F65CCEF14F0CEEF95
:1029960014F0D2EF14F0010E906F06EF15F050C050
:1029A60091F08E51D96EDA6ADF500F0B8F6F91510D
:1029B6008F19F80B8F19916F8E51D96EDA6ADF383D
:1029C600070B8F6F8F478F478F4791518F19C70B13
:1029D6008F19916F919D8E51D96EDA6ADFAE02D052
:1029E600918F02D00001919F910E8A6F8B6B24EC20
:1029F60016F0910E0001816F826B010E836F32EC2F
:102A060012F00001906F9051120000018E51D8B45F
:102A16000FEF15F011EF15F01FEF15F08E51D96E6F
:102A2600DA6ADF38070B8F6F070E8F651DEF15F01B
:102A36001FEF15F023EF15F0010E906F57EF15F00D
:102A46004FC091F08E51D96EDA6ADF500F0B8F6F3F
:102A560091518F19F80B8F19916F8E51D96EDA6AD1
:102A6600DF38070B8F6F8F478F478F4791518F192D
:102A7600C70B8F19916F919D8E51D96EDA6ADFAEB1
:102A860002D0918F02D00001919F910E8A6F8B6BBD
:102A960024EC16F0910E0001816F826B000E836F9D
:102AA60032EC12F00001906F90511200F28EF28C0F
:102AB6009D869E96000120EE08F08151D92682510E
:102AC600DA22DECF40F0DDCF41F020EE04F0815176
:102AD600D9268251DA22DECFCFF0DDCFD0F020EE3C
:102AE60006F08151D9268251DA22DECFCDF0DDCF34
:102AF600CEF0D08E20EE0AF08151D9268251DA220C
:102B0600DE04D8A489EF15F08BEF15F08EEF15F0E3
:102B16009F86A0EF15F020EE0AF08151D92682514A
:102B2600DA22DF50D8A49AEF15F09CEF15F09FEF4C
:102B360015F09F96A0EF15F09F861200000E296EE5
:102B460023502410D8A4AAEF15F0ACEF15F0B0EF7F
:102B560015F0010E296EE1EF15F0C6EF15F025C050
:102B66002AF026C02BF02AC0BEFF2BC0BFFFE1EF24
:102B760015F025C02AF026C02BF02AC0BBFF2BC0BB
:102B8600BCFFE1EF15F020EE0BF02350D9262450C0
:102B9600DA22DF50276E286A2850000AD8B4D6EF0A
:102BA60015F0ACEF15F02750000AD8B4B2EF15F0C7
:102BB600010AD8B4BCEF15F0ACEF15F0295012009D
:102BC600BA0EF66E2C0EF76E000EF86E01EE00F0E1
:102BD60010EE67F00900F5CFEEFFE550E150FAE19F
:102BE600EA0EF66E2E0EF76E000EF86E00EED5F0BB
:102BF60010EE2AF00900F5CFEEFFE550E150FAE1BC
:102C0600400EF66E2F0EF76E000EF86E00EE53F0C5
:102C160010EE0CF00900F5CFEEFFE550E150FAE1B9
:102C260000EEABF02A0EEE6AE806FDE100EE30F0AB
:102C3600230EEE6AE806FDE15F905F92000191EFD8
:102C460016F000018A518B11D8B42CEF16F02EEF36
:102C560016F03FEF16F08AC0D9FF8BC0DAFFDF30DF
:102C6600E832E832070B8C6F070E8C653DEF16F0E5
:102C76003FEF16F043EF16F0010E8D6F5BEF16F087
:102C86008AC081F08BC082F095EC11F000018D6F47
:102C96008AC081F08BC082F08AC0D9FF8BC0DAFF70
:102CA600000EDFBE010E836F32EC12F000018D6F55
:102CB6008D511200800F810F820F830F840F323ADD
:102CC600030B131B232B333B030B131B636B730089
:102CD60000000061010000510002000000490101EE
:102CE60001000041010001020A121A222A000064B2
:102CF6002F000000008025000000010301030000F2
:102D060000000000000000C62D01600600AE28018C
:0B2D1600080000000000000000011297
:102D22004B0E01017F6F010E806F9AEC0EF0A8EF3F
:102D320016F05E0E00018E6FB7EC14F0A8EF16F0DD
:102D42005E0E00018E6F08EC15F0A8EF16F04650EB
:102D52000101836F846B8451000AD8B4B3EF16F07B
:102D6200A8EF16F08351630AD8B49AEF16F0070A57
:102D7200D8B4A1EF16F0A8EF16F013EF00F0000E92
:102D8200151A000E161A000E171A800E181A11C004
:102D920001F012C002F013C003F014C004F015C019
:102DA20005F016C006F017C007F018C008F06CEC6A
:102DB2000AF001C011F002C012F003C013F004C007
:102DC20014F01200C7B4E8EF16F0EAEF16F0FCEFC9
:102DD20016F0C7BAEFEF16F0F1EF16F0FCEF16F0AF
:102DE200C9CF46F0C7A0F8EF16F0FAEF16F0F3EFEE
:102DF20016F0C9CF46F012000001B551B611D8B491
:102E020005EF17F007EF17F015EF17F002D813EFE1
:102E120017F00500FA6EB551FD6EB651FE6EFF6AEF
:102E2200FA50120015EF17F01200C6989E96405005
:102E32004110D8B41FEF17F021EF17F02DEF17F064
:102E420002D82DEF17F00500FA6E4050FD6E41508A
:102E5200FE6EFF6AFA501200C68812009E949E947B
:102E620044504510D8B438EF17F03AEF17F046EF58
:102E720017F002D846EF17F00500FA6E4450FD6EC7
:102E82004550FE6EFF6AFA50120012000150D8A49B
:102E92004DEF17F04FEF17F051EF17F05DEF17F00E
:102EA2009EAA56EF17F058EF17F04FEF17F00150A8
:102EB200D96EDA6AAECFDFFF1200A1904250431002
:102EC200D8B466EF17F068EF17F074EF17F002D876
:102ED20074EF17F00500FA6E4250FD6E4350FE6E1D
:102EE200FF6AFA5012001200890F8A0F8B0F8C0FA3
:102EF2008D0F920F930F940F950F960F01091119D1
:102F020000030B131B000008101800000001000052
:102F120000040150D8A490EF17F092EF17F094EF4D
:102F220017F098EF17F002C0B2FF03C0B3FF120010
:102F3200F2940001C451D76EC3C0D6FF1200080735
:102F42002A221A120A0232221203A192B9C0B2FF35
:102F5200BAC0B3FF12009E90BFC0CEFFC0C0CFFF69
:102F62001200520E016E47EC17F012009E9248C0FA
:0C2F7200CCFF12009D9812009E9C1200E3
:020000040030CA
:0E000000FF02091EFF8181FF0FC00FE00F40BD
:00000001FF
