:0400000007EF00F016
:0A0008007A8285ED15F0EAEF15F09D
:1010000000256C6400004950800B526E4950492401
:10101000546E48AE0EEF08F010EF08F011EF08F034
:1010200054805450D8B417EF08F019EF08F02EEFA1
:1010300008F05428D8A41FEF08F021EF08F029EF9A
:1010400008F0000E466E000E476E000E486E000E51
:10105000496E488E000E496E36EF08F0000E466E5F
:10106000000E476E000E486E000E496E4D50800B0C
:10107000536E52505318D8B440EF08F042EF08F0C6
:1010800043EF08F0528C4D504D24536E4CAE4BEF55
:1010900008F04DEF08F04EEF08F053805350D8B4ED
:1010A00054EF08F056EF08F06BEF08F05328D8A47F
:1010B0005CEF08F05EEF08F066EF08F0000E4A6E95
:1010C000000E4B6E000E4C6E000E4D6E4C8E000EE0
:1010D0004D6E73EF08F0000E4A6E000E4B6E000E60
:1010E0004C6E000E4D6E5450535CD8B07AEF08F041
:1010F0007CEF08F0A3EF08F052AC81EF08F083EF2B
:1011000008F085EF08F0800E521A54C055F053C015
:1011100054F055C053F046C055F04AC046F055C093
:101120004AF047C055F04BC047F055C04BF048C09F
:1011300055F04CC048F055C04CF049C055F04DC07A
:1011400049F055C04DF0000E556E545053C04EF04E
:101150004F6A4E5E000E4F5A4FBEB8EF08F04F5028
:1011600009E11A0E4E5CD8A0B8EF08F0BAEF08F00B
:10117000F1EF08F04650471048104910D8A4C3EFCB
:1011800008F0C6EF08F0010EC7EF08F0000E556E2C
:10119000000E466E000E476E000E486E000E496E41
:1011A00053C054F0FAEF08F055A0D9EF08F0DBEF88
:1011B00008F0E1EF08F0D89055300109556EE3EFE3
:1011C00008F0D890553246A0E8EF08F0EAEF08F0B2
:1011D000EBEF08F0558E49344932483247324632F7
:1011E000542A5350545CD8A0F8EF08F0FAEF08F0F6
:1011F000D4EF08F052BCFFEF08F001EF09F041EF27
:1012000009F05450D8A407EF09F009EF09F013EFE3
:1012100009F0000E466E000E476E000E486E000E7E
:10122000496E62EF0AF04A5046264B5047224C5016
:1012300048224D50492249A020EF09F022EF09F041
:10124000CEEF09F055A027EF09F029EF09F02FEFB5
:1012500009F0D89055300109556E31EF09F0D8905A
:10126000553246A036EF09F038EF09F039EF09F0B2
:10127000558E49344932483247324632542ACEEFED
:1012800009F04A50465C4B5047584C50485849501A
:10129000800A4E6E4D50800A4E58D8B052EF09F079
:1012A00054EF09F07FEF09F046504A5C4E6E47500C
:1012B0004B584F6E48504C58506E49504D58516ED7
:1012C000FF0E4E24466EFF0E4F20476EFF0E50203D
:1012D000486EFF0E5120496E800E521A556C5550C3
:1012E000D8A475EF09F077EF09F087EF09F0010E48
:1012F0004626000E47224822492287EF09F04A502D
:10130000465E4B50475A4C50485A4D50495A4650E9
:10131000471048104910D8A490EF09F092EF09F057
:10132000C7EF09F05550D8A498EF09F09AEF09F0EB
:10133000C7EF09F0000E466E000E476E000E486EB5
:10134000000E496E62EF0AF0D890463647364836AE
:10135000493655AEAEEF09F0B0EF09F0B1EF09F044
:10136000468055A0B6EF09F0B8EF09F0BCEF09F0E0
:10137000D8805536BEEF09F0D89055365450D8B4C1
:10138000C4EF09F0C6EF09F0C7EF09F0540648AE04
:10139000CCEF09F0CEEF09F0A4EF09F0000E536E88
:1013A00055AED5EF09F0D7EF09F0EFEF09F055C0D2
:1013B0004EF07F0E4E16D8B4E0EF09F0E2EF09F0E0
:1013C000E6EF09F0010E536EEFEF09F046A0EBEFE8
:1013D00009F0EDEF09F0EFEF09F0E2EF09F05350FB
:1013E000D8B4F5EF09F0F7EF09F022EF0AF0010E9B
:1013F0004626000E47224822492249A002EF0AF061
:1014000004EF0AF022EF0AF046C04EF047C04FF05A
:1014100048C050F049C051F05134513250324F322F
:101420004E324EC046F04FC047F050C048F051C059
:1014300049F05428D8B41FEF0AF021EF0AF022EF48
:101440000AF0542A5428D8B428EF0AF02AEF0AF0F8
:1014500032EF0AF05450D8A430EF0AF032EF0AF01D
:1014600044EF0AF0000E466E000E476E000E486E06
:10147000000E496E5450D8A440EF0AF042EF0AF033
:1014800044EF0AF0000E526E54A049EF0AF04BEF01
:101490000AF04EEF0AF0488E4FEF0AF0489ED890BF
:1014A0005430496E52AE57EF0AF059EF0AF05AEF36
:1014B0000AF0498E46C046F047C047F048C048F0A1
:1014C00049C049F01200000E596E000E5A6E000E0F
:1014D0005B6E000E5C6E5DEF0CF0AC98B896AC9451
:1014E000000E186E000E196E800E1A6E420E1B6EE4
:1014F0005650D96EDA6A080ED926DECF06F0DECF56
:1015000007F0DECF08F0DECF09F0000E89EC10F016
:1015100006C014F007C015F008C016F009C017F097
:10152000A7EC0CF014C031F015C032F016C033F047
:1015300017C034F0000E2D6E240E2E6EF40E2F6E9A
:101540004A0E306EBCEC0EF02DC046F02EC047F0B7
:101550002FC048F030C049F0000E4A6E000E4B6EAE
:10156000800E4C6EBF0E4D6E03EC08F046C059F075
:1015700047C05AF048C05BF049C05CF087EF0CF000
:10158000AC98B896AC84000E186E000E196E800EE2
:101590001A6E410E1B6E5650D96EDA6A080ED926A5
:1015A000DECF06F0DECF07F0DECF08F0DECF09F0A9
:1015B000000E89EC10F006C014F007C015F008C04A
:1015C00016F009C017F0A7EC0CF014C031F015C0EC
:1015D00032F016C033F017C034F0000E2D6E240E1A
:1015E0002E6EF40E2F6E4A0E306EBCEC0EF02DC037
:1015F00046F02EC047F02FC048F030C049F0000E32
:101600004A6E000E4B6E800E4C6EBF0E4D6E03EC9C
:1016100008F046C059F047C05AF048C05BF049C0D6
:101620005CF087EF0CF0AC98B886AC94000E186EA6
:10163000000E196E800E1A6E410E1B6E5650D96E3A
:10164000DA6A080ED926DECF06F0DECF07F0DECF4D
:1016500008F0DECF09F0000E89EC10F006C014F09F
:1016600007C015F008C016F009C017F0A7EC0CF081
:1016700014C031F015C032F016C033F017C034F08A
:10168000000E2D6E240E2E6EF40E2F6E4A0E306E4E
:10169000BCEC0EF02DC046F02EC047F02FC048F035
:1016A00030C049F0000E4A6E000E4B6E800E4C6E3C
:1016B000BF0E4D6E03EC08F046C059F047C05AF01B
:1016C00048C05BF049C05CF087EF0CF0AC98B8867E
:1016D000AC84000E186E000E196E800E1A6E400E4D
:1016E0001B6E5650D96EDA6A080ED926DECF06F088
:1016F000DECF07F0DECF08F0DECF09F0000E89EC78
:1017000010F006C014F007C015F008C016F009C0AC
:1017100017F0A7EC0CF014C031F015C032F016C071
:1017200033F017C034F0000E2D6E240E2E6EF40E22
:101730002F6E4A0E306EBCEC0EF02DC046F02EC05F
:1017400047F02FC048F030C049F0000E4A6E000E3E
:101750004B6E800E4C6EBF0E4D6E03EC08F046C013
:1017600059F047C05AF048C05BF049C05CF087EFC1
:101770000CF0AC88B896000E186E000E196E800E34
:101780001A6E400E1B6E5650D96EDA6A080ED926B4
:10179000DECF06F0DECF07F0DECF08F0DECF09F0B7
:1017A000000E89EC10F006C014F007C015F008C058
:1017B00016F009C017F0A7EC0CF014C031F015C0FA
:1017C00032F016C033F017C034F0000E2D6E240E28
:1017D0002E6EF40E2F6E4A0E306EBCEC0EF02DC045
:1017E00046F02EC047F02FC048F030C049F0000E40
:1017F0004A6E000E4B6E800E4C6EBF0E4D6E03ECAB
:1018000008F046C059F047C05AF048C05BF049C0E4
:101810005CF087EF0CF0AC88B886000E186E000EF6
:10182000196E800E1A6E400E1B6E5650D96EDA6A13
:10183000080ED926DECF06F0DECF07F0DECF08F0A7
:10184000DECF09F0000E89EC10F006C014F007C0DE
:1018500015F008C016F009C017F0A7EC0CF014C082
:1018600031F015C032F016C033F017C034F0000E5E
:101870002D6E240E2E6EF40E2F6E4A0E306EBCECC2
:101880000EF02DC046F02EC047F02FC048F030C0FB
:1018900049F0000E4A6E000E4B6E800E4C6EBF0E6D
:1018A0004D6E03EC08F046C059F047C05AF048C0EE
:1018B0005BF049C05CF087EF0CF05650D96EDA6AE5
:1018C0000C0ED926DF50576E586A5850000AD8B40B
:1018D0006CEF0CF087EF0CF05750000AD8B46DEFA6
:1018E0000AF0010AD8B4C0EF0AF0030AD8B413EF23
:1018F0000BF0010AD8B466EF0BF0070AD8B4B9EFC1
:101900000BF0010AD8B40BEF0CF087EF0CF059C0C4
:1019100006F05AC007F05BC008F05CC009F08EEC1E
:1019200013F00650AF6E59C006F05AC007F05BC006
:1019300008F05CC009F08EEC13F007C006F008C098
:1019400007F009C008F0096A0650B06E120017507F
:10195000800B206E17501724266E16AEB2EF0CF0D7
:10196000B4EF0CF0B5EF0CF026802650D8B4BBEFE6
:101970000CF0BDEF0CF0D0EF0CF02628D8A4C3EF8C
:101980000CF0C5EF0CF0CDEF0CF0000E146E000E55
:10199000156E000E166E000E176E168ED8EF0CF038
:1019A000000E146E000E156E000E166E000E176EF1
:1019B0001B50800B201A1B501B24216E1AAEE3EF24
:1019C0000CF0E5EF0CF0E6EF0CF021802150D8B4DC
:1019D000ECEF0CF0EEEF0CF001EF0DF02128D8A4A5
:1019E000F4EF0CF0F6EF0CF0FEEF0CF0000E186EBA
:1019F000000E196E000E1A6E000E1B6E1A8E09EF85
:101A00000DF0000E186E000E196E000E1A6E000E0C
:101A10001B6E2150D8B40FEF0DF011EF0DF019EF40
:101A20000DF02650D8A417EF0DF019EF0DF023EFAD
:101A30000DF0000E146E000E156E000E166E000EE8
:101A4000176EBBEF0EF01A501402F3CF2BF0F4CF49
:101A50002CF02B50226E236A246A256A2C50276EA4
:101A6000286A296A2A6A19501502F3CF2BF0F4CF9D
:101A70002CF02B502226000E2322242225222C502B
:101A80002726000E282229222A2218501602F3CFD8
:101A90002BF0F4CF2CF02B502226000E23222422F0
:101AA00025222C502726000E282229222A2224C053
:101AB00025F023C024F022C023F0226A185015021A
:101AC000F3CF2BF0F4CF2CF02B5022262C502322D6
:101AD000000E2422000E252219501402F3CF2BF001
:101AE000F4CF2CF02B5022262C502322000E24223F
:101AF000000E252224C025F023C024F022C023F0AC
:101B0000226A18501402F3CF2BF0F4CF2CF02B5094
:101B100022262C502322000E2422000E25221A50A9
:101B20001502F3CF2BF0F4CF2CF02B5027262C509E
:101B30002822000E2922000E2A2219501602F3CF65
:101B40002BF0F4CF2CF02B5027262C502822000EFF
:101B50002922000E2A221A501602F3CF2BF0F4CFBE
:101B60002CF02B501C6E2C501D6E1E6A1F6A1EC05E
:101B70001FF01DC01EF01CC01DF01C6A1C50272643
:101B80001D5028221E5029221F502A2222C01CF03C
:101B900023C01DF024C01EF025C01FF0190ED6EF83
:101BA0000DF0D8901F321E321D321C32E82ED1EFBC
:101BB0000DF01C5027261D5028221E5029221F5090
:101BC0002A2224C025F023C024F022C023F0226A58
:101BD000215026C01CF01D6A1C26000E1D22820EFC
:101BE0001C242B6EFF0E1D202C6E0CEF0EF0D890D7
:101BF0002736283629362A3625AE01EF0EF003EFB8
:101C00000EF004EF0EF02780D890223623362436CB
:101C100025362B06D8A02C0629AE11EF0EF013EFB7
:101C20000EF0F7EF0DF0000E216E25AE1AEF0EF05C
:101C30001CEF0EF040EF0EF0FF0E22141C6EFF0E94
:101C400023141D6EFF0E24141E6E7F0E25141F6EAE
:101C50001C501D101E101F10D8B431EF0EF033EFC2
:101C60000EF037EF0EF0010E216E40EF0EF027A0C0
:101C70003CEF0EF03EEF0EF040EF0EF033EF0EF0C3
:101C80002150D8B446EF0EF048EF0EF06CEF0EF096
:101C9000010E2726000E282229222A222AA053EFED
:101CA0000EF055EF0EF06CEF0EF027C01CF028C0C0
:101CB0001DF029C01EF02AC01FF01F341F321E3233
:101CC0001D321C321CC027F01DC028F01EC029F098
:101CD0001FC02AF02B4A2C2A2CBE77EF0EF02C5076
:101CE00008E12B28D8A077EF0EF079EF0EF083EF04
:101CF0000EF0000E276E000E286E800E296E7F0EED
:101D00002A6EB1EF0EF02CBE90EF0EF02C5006E1D3
:101D10002B04D8B08EEF0EF090EF0EF09CEF0EF08B
:101D2000000E276E000E286E000E296E000E2A6E21
:101D3000000E206EB1EF0EF02BC026F0FF0E27161E
:101D4000FF0E28167F0E2916000E2A1626A0ABEFCE
:101D50000EF0ADEF0EF0AEEF0EF0298ED8902630DB
:101D60002A6E20502A1227C014F028C015F029C06E
:101D700016F02AC017F012003050800B3D6E305024
:101D80003024446E2FAEC7EF0EF0C9EF0EF0CAEF4D
:101D90000EF044804450D8B4D0EF0EF0D2EF0EF0E5
:101DA000E7EF0EF04428D8A4D8EF0EF0DAEF0EF0EB
:101DB000E2EF0EF0000E2D6E000E2E6E000E2F6E56
:101DC000000E306E2F8E000E306EEFEF0EF0000E14
:101DD0002D6E000E2E6E000E2F6E000E306E3450E3
:101DE000800B3D1A34503424456E33AEFAEF0EF0BA
:101DF000FCEF0EF0FDEF0EF045804550D8B403EF38
:101E00000FF005EF0FF01AEF0FF04528D8A40BEFF5
:101E10000FF00DEF0FF015EF0FF0000E316E000E0A
:101E2000326E000E336E000E346E338E000E346E42
:101E300022EF0FF0000E316E000E326E000E336E88
:101E4000000E346E3150321033103410D8A42BEF02
:101E50000FF02DEF0FF045EF0FF0000E2D6E000E7E
:101E60002E6E000E2F6E000E306E800E2F127F0E23
:101E700030123D5030122DC02DF02EC02EF02FC04C
:101E80002FF030C030F088EF10F04450D8A44BEF62
:101E90000FF04DEF0FF057EF0FF0000E2D6E000E0C
:101EA0002E6E000E2F6E000E306E88EF10F0455033
:101EB00044C035F0366A355E000E365A7F0E352442
:101EC0003E6E000E36203F6E2DC039F02EC03AF027
:101ED0002FC03BF030C03CF0000E2D6E000E2E6E79
:101EE000000E2F6E000E306E000E406E000E416E22
:101EF000000E426E000E436E000E456EB8EF0FF0FE
:101F00004550D8B486EF0FF088EF0FF09FEF0FF039
:101F1000D89039363A363B363C36D8902D362E3668
:101F20002F36303643AE97EF0FF099EF0FF09AEF60
:101F30000FF02D80D890403641364236433631502E
:101F4000395C32503A5833503B5834503C58D8A042
:101F5000ACEF0FF0AEEF0FF0B7EF0FF0438C315056
:101F6000395E32503A5A33503B5A34503C5A452A23
:101F7000190E4564BEEF0FF0C0EF0FF080EF0FF0C9
:101F800039503A103B103C10D8B4C9EF0FF0CBEFEA
:101F90000FF0E3EF0FF04080E3EF0FF0D8902D3615
:101FA0002E362F36303643AED8EF0FF0DAEF0FF083
:101FB000DBEF0FF02D80D890403641364236433665
:101FC0003E06D8A03F062FAEE8EF0FF0EAEF0FF085
:101FD000CEEF0FF0000E456E43AEF1EF0FF0F3EFD2
:101FE0000FF017EF10F0FF0E4014356EFF0E411486
:101FF000366EFF0E4214376E7F0E4314386E355026
:10200000361037103810D8B408EF10F00AEF10F07F
:102010000EEF10F0010E456E17EF10F02DA013EF2C
:1020200010F015EF10F017EF10F00AEF10F0455018
:10203000D8B41DEF10F01FEF10F043EF10F0010EB9
:102040002D26000E2E222F22302230A02AEF10F053
:102050002CEF10F043EF10F02DC035F02EC036F00D
:102060002FC037F030C038F038343832373236329B
:10207000353235C02DF036C02EF037C02FF038C0C5
:1020800030F03E4A3F2A3FBE4EEF10F03F5008E18D
:102090003E28D8A04EEF10F050EF10F05BEF10F09C
:1020A000000E3F6E3E68000E2D6E000E2E6E000E6E
:1020B0002F6E000E306E3FBE68EF10F03F5006E10D
:1020C0003E04D8B066EF10F068EF10F076EF10F035
:1020D000000E3F6E000E3E6E000E2D6E000E2E6E38
:1020E000000E2F6E000E306E000E3D6E3EC044F0AE
:1020F00044A07DEF10F07FEF10F082EF10F02F8EF4
:1021000083EF10F02F9ED8904430306E39EF0FF0EF
:1021100012000E6E0E50D8B490EF10F092EF10F047
:10212000B4EF10F009BE99EF10F097EF10F0B4EF94
:1021300010F006C00AF007C00BF008C00CF009C090
:102140000DF00A1E0B1E0C1E0D1E0A2A000E0B227D
:102150000C220D220AC010F00BC011F00CC012F0BE
:102160000DC013F0BCEF10F006C010F007C011F066
:1021700008C012F009C013F006500710081009102B
:10218000D8A4C5EF10F0C7EF10F0D1EF10F0000E9B
:10219000066E000E076E000E086E000E096E62EFEE
:1021A00011F0960E0F6EDBEF10F00F2AD89013325D
:1021B000123211321032000E10140A6E000E111479
:1021C0000B6E000E12140C6EFE0E13140D6E0A50E0
:1021D0000B100C100D10D8A4F0EF10F0F2EF10F06F
:1021E000D5EF10F000EF11F00F2A010E1026000EAF
:1021F000112212221322D8901332123211321032CD
:10220000000E10140A6E000E11140B6E000E121444
:102210000C6EFF0E13140D6E0A500B100C100D10E7
:10222000D8A415EF11F017EF11F0F4EF10F01FEF35
:1022300011F00F06D890103611361236133612BE32
:1022400024EF11F026EF11F02EEF11F0020E0F60C7
:102250002CEF11F02EEF11F019EF11F00FB033EF5A
:1022600011F035EF11F036EF11F0129ED8900F32C9
:102270000FC00AF00B6A0C6A0D6A0AC00DF00C6AF6
:102280000B6A0A6A0A5010120B5011120C501212EB
:102290000D5013120E50D8B450EF11F052EF11F050
:1022A0005AEF11F009BE59EF11F057EF11F05AEF44
:1022B00011F0138E10C006F011C007F012C008F024
:1022C00013C009F01200000E0C6E0650D8B46BEF6C
:1022D00011F06DEF11F07DEF11F00650D96EDA6A52
:1022E000DF30E832E832070B076E070E07647BEF3A
:1022F00011F07DEF11F0D4EF11F0010E0C6EF4EF40
:1023000011F00650D96EDA6ADF30E832E832070B96
:10231000076E010E086E072A90EF11F0D89008366C
:10232000072E8EEF11F00850FF0A096E0650D96E85
:10233000DA6ADF50070B020DF350940FD96EDA6A98
:10234000DECF0AF0DDCF0BF00AC0D9FF0BC0DAFFF9
:102350000950DF16F4EF11F00650D96EDA6ADF305B
:10236000E832E832070B076E010E086E072ABBEF52
:1023700011F0D8900836072EB9EF11F00650D96E3B
:10238000DA6ADF50070B020DF350940FD96EDA6A48
:10239000DECF09F0DDCF0AF009C0D9FF0AC0DAFFAD
:1023A0000850DF12F4EF11F00650D96EDA6ADFBC84
:1023B000DCEF11F0DFEF11F0010EE0EF11F0000E95
:1023C000076E086A0850000AD8B4E9EF11F07DEFF3
:1023D00011F00750000AD8B481EF11F0010AD8B407
:1023E000ACEF11F07DEF11F00C5012005CEF12F029
:1023F000AB980CEF12F09D8AF28EF28C0650D96EDB
:10240000DA6A020ED926DECF5FF0DDCF60F034EF5E
:1024100012F09D9A34EF12F00650D96EDA6A0E0E61
:10242000D926DFB216EF12F019EF12F0010E1AEFF3
:1024300012F0000E076E086A0850000AD8B423EFA5
:1024400012F034EF12F00750000AD8B409EF12F07E
:10245000010AD8B4FBEF11F034EF12F0AB8C56EF59
:1024600012F0AB9C56EF12F00650D96EDA6A0E0EDF
:10247000D926DFB43EEF12F041EF12F0010E42EF29
:1024800012F0000E076E086A0850000AD8B44BEF2D
:1024900012F056EF12F00750000AD8B431EF12F0E4
:1024A000010AD8B42EEF12F056EF12F0AB887EEF8F
:1024B00012F0AB987EEF12F00650D96EDA6A0E0E6B
:1024C000D926DFB066EF12F069EF12F0010E6AEF65
:1024D00012F0000E076E086A0850000AD8B473EFB5
:1024E00012F07EEF12F00750000AD8B459EF12F044
:1024F000010AD8B4F8EF11F07EEF12F01200000ECE
:102500000D6E0650D8B487EF12F089EF12F099EFF4
:1025100012F00650D96EDA6ADF30E832E832070B83
:10252000086E070E086497EF12F099EF12F0F0EFC3
:1025300012F0010E0D6E05EF13F00650D96EDA6A37
:10254000DF30E832E832070B086E010E096E082A08
:10255000ACEF12F0D8900936082EAAEF12F0065010
:10256000D96EDA6ADF50070B020DF3508A0FD96E6D
:10257000DA6ADECF0AF0DDCF0BF00AC0D9FF0BC05C
:10258000DAFF0950DF1205EF13F00650D96EDA6A50
:10259000DF30E832E832070B086E010E096E082AB8
:1025A000D4EF12F0D8900936082ED2EF12F009506D
:1025B000FF0A0A6E0650D96EDA6ADF50070B020D69
:1025C000F3508A0FD96EDA6ADECF0BF0DDCF0CF054
:1025D0000BC0D9FF0CC0DAFF0A50DF1605EF13F06D
:1025E0000750086E096A0950000AD8B4FAEF12F0D1
:1025F00099EF12F00850000AD8B4C5EF12F0010AA2
:10260000D8B49DEF12F099EF12F00D5012006BEF5D
:1026100013F0AC9A1BEF13F09D88F28EF28C0650EB
:10262000D96EDA6ADECFB6F0DDCFB7F043EF13F044
:102630009D9843EF13F00650D96EDA6A0D0ED92635
:10264000DFB225EF13F028EF13F0010E29EF13F09E
:10265000000E076E086A0850000AD8B432EF13F073
:1026600043EF13F00750000AD8B418EF13F0010A33
:10267000D8B40CEF13F043EF13F0AC8C65EF13F00C
:10268000AC9C65EF13F00650D96EDA6A0D0ED926B0
:10269000DFB44DEF13F050EF13F0010E51EF13F0D4
:1026A000000E076E086A0850000AD8B45AEF13F0FB
:1026B00065EF13F00750000AD8B440EF13F0010A99
:1026C000D8B43DEF13F065EF13F0AC8A8DEF13F043
:1026D000AC9A8DEF13F00650D96EDA6A0D0ED9263A
:1026E000DFB075EF13F078EF13F0010E79EF13F010
:1026F000000E076E086A0850000AD8B482EF13F083
:102700008DEF13F00750000AD8B468EF13F0010AF8
:10271000D8B409EF13F08DEF13F012000834093428
:102720000F6E0F50D8A497EF13F099EF13F0A3EFAB
:1027300013F0000E066E000E076E000E086E000EFF
:10274000096E10EF14F006C00AF007C00BF008C0C5
:102750000CF009C00DF0200EB3EF13F0D8900D323D
:102760000C320B320A32E82EAEEF13F00A500E6E26
:10277000088EFF0E0616FF0E0716FF0E0816000E37
:102780000916960E0F5E0FBECAEF13F0C8EF13F0D6
:10279000E0EF13F00F50800A970FD8B0D2EF13F08C
:1027A000D4EF13F0D6EF13F099EF13F0D89009326D
:1027B0000832073206320F3ED6EF13F0F8EF13F06F
:1027C0001F0E0F64E6EF13F0E8EF13F0F0EF13F0D5
:1027D00099EF13F0D89006360736083609360F06FB
:1027E0000F50D8A4F6EF13F0F8EF13F0EAEF13F060
:1027F0000E50D8B4FEEF13F000EF14F008EF14F011
:10280000091E081E071E066C000E07220822092258
:1028100006C006F007C007F008C008F009C009F0BC
:102820001200AEEC17F0710E066E68EC16F02DEF8C
:1028300014F02AEC17F063EF14F045EC17F063EF97
:1028400014F0F4EC16F063EF14F00FEC17F063EFF4
:1028500014F0D9EC16F063EF14F071500001D96F49
:10286000DA6BDA51000AD8B438EF14F029EF14F01B
:10287000D951420AD8B41DEF14F0040AD8B419EFA4
:1028800014F00A0AD8B425EF14F01E0AD8B421EFC8
:1028900014F0010AD8B429EF14F0310AD8B41DEFAE
:1028A00014F0040AD8B419EF14F00A0AD8B425EFCA
:1028B00014F01E0AD8B421EF14F0010AD8B429EF9D
:1028C00014F029EF14F0020E0001DA6F040ED96F34
:1028D000BA0EE82EFED7D92FFCD7DA2FFAD7000090
:1028E00013EF14F007EF00F01150D8B47AEF14F0A2
:1028F0007CEF14F08AEF14F01150D96EDA6ADF38E9
:10290000070B126E070E126488EF14F08AEF14F0B2
:102910008EEF14F0010E136EBDEF14F06EC014F0C4
:102920001150D96EDA6ADF500F0B126E1450121864
:10293000F80B1218146E1150D96EDA6ADF38070BD3
:10294000126E12461246124614501218C70B121875
:10295000146E149C1150D96EDA6ADFAE02D0148E58
:1029600001D0149E140E0E6E1BEC16F0140E066EA3
:10297000010E076E7FEC12F0136E1350120011500F
:10298000D8B4C5EF14F0C7EF14F0D5EF14F0115020
:10299000D96EDA6ADF38070B126E070E1264D3EFB6
:1029A00014F0D5EF14F0D9EF14F0010E136E08EF08
:1029B00015F06DC014F01150D96EDA6ADF500F0BAC
:1029C000126E14501218F80B1218146E1150D96EA2
:1029D000DA6ADF38070B126E12461246124614509E
:1029E0001218C70B1218146E149C1150D96EDA6AA3
:1029F000DFAE02D0148E01D0149E140E0E6E1BECAE
:102A000016F0140E066E000E076E7FEC12F0136EB9
:102A1000135012001150D8B410EF15F012EF15F04A
:102A200020EF15F01150D96EDA6ADF38070B126EFD
:102A3000070E12641EEF15F020EF15F024EF15F0CD
:102A4000010E136E4DEF15F06FC014F01150D96EDA
:102A5000DA6ADF500F0B126E14501218F80B1218AE
:102A6000146E1150D96EDA6ADF38070B126E1246F7
:102A70001246124614501218C70B1218146E149CEA
:102A80001150D96EDA6ADFAE02D0148E01D0149ED6
:102A9000140E0E6E1BEC16F0136E13501200115034
:102AA000D8B455EF15F057EF15F075EF15F011503C
:102AB000D96EDA6ADF30E832E832070B126E080EA0
:102AC000126065EF15F067EF15F075EF15F0115016
:102AD000D96EDA6ADF50070B126E040E126473EFC0
:102AE00015F075EF15F079EF15F0010E136E83EF09
:102AF00015F011C00EF01BEC16F0136E11280E6EBF
:102B00001BEC16F0136E135012000600FACF02F001
:102B1000FBCF03F0D9CF04F0DACF05F09DA893EFF7
:102B200015F095EF15F09EEF15F09EA89AEF15F0B1
:102B30009CEF15F09EEF15F0BDEC17F09DAAA3EFEA
:102B400015F0A5EF15F0AEEF15F09EAAAAEF15F05F
:102B5000ACEF15F0AEEF15F060EC17F005C0DAFF42
:102B600004C0D9FF03C0FBFF02C0FAFF7A92110034
:102B7000000E5E6E5D50D8A4C0EF15F0C2EF15F0E8
:102B8000C6EF15F0010E5E6EE8EF15F0AB9E948C6B
:102B9000948E5DC056F063EC0AF05DC006F007EC61
:102BA00013F05DC006F0F6EC11F05D50D96EDA6AF4
:102BB000040ED926DECFB4F0DDCFB5F05D50D96E6E
:102BC000DA6A060ED926DECFB2F0DDCFB3F0AB8ED7
:102BD0005E501200F00EF66E2E0EF76E000EF86EBE
:102BE00000EE80F010EE2EF00900F5CFEEFFE5507C
:102BF000E150FAE1720EF66E2F0EF76E000EF86ECF
:102C000000EE72F010EE08F00900F5CFEEFFE5508F
:102C1000E150FAE100EEAEF0280EEE6AE806FDE1C2
:102C200000EE5FF0130EEE6AE806FDE17A907A920C
:102C3000000111EF14F00E50D8B421EF16F023EF7D
:102C400016F033EF16F00E50D96EDA6ADF30E83244
:102C5000E832070B0F6E070E0F6431EF16F033EFFB
:102C600016F037EF16F0010E106E48EF16F00EC09A
:102C700006F063EC11F0106E0EC006F00E50D96E27
:102C8000DA6A000EDFBE010E076E7FEC12F0106EE6
:102C900010501200740E116E4FEC15F0720E116E82
:102CA0004FEC15F0A6EC17F0790E116E0AEC15F04A
:102CB000780E116E0AEC15F0770E116E0AEC15F015
:102CC000760E116E0AEC15F00001D76FD751120085
:102CD000000E076E0650D8A470EF16F072EF16F0D3
:102CE00076EF16F0010E076E83EF16F07050D8B431
:102CF0007CEF16F07EEF16F072EF16F00650D96EEC
:102D0000DA6A70C0DFFF075012000E50D8A48BEFB4
:102D100016F08DEF16F091EF16F0010E0F6E9FEF8B
:102D200016F00EC006F0000E076E7FEC12F00F6E6C
:102D30000E28066E000E076E7FEC12F00F6E0F501D
:102D400012000E50D8A4A7EF16F0A9EF16F0ADEFC1
:102D500016F0010E0F6EBBEF16F00EC006F0010E5E
:102D6000076E7FEC12F00F6E0E28066E000E076ED7
:102D70007FEC12F00F6E0F5012000E50D8A4C3EF6C
:102D800016F0C5EF16F0C9EF16F0010E0F6ED7EF73
:102D900016F00EC006F0000E076E7FEC12F00F6EFC
:102DA0000E28066E010E076E7FEC12F00F6E0F50AC
:102DB0001200740E0E6E85EC16F0720E0E6E85EC1F
:102DC00016F0790E116EBFEC14F0780E116EBFEC98
:102DD00014F0770E116EBFEC14F0760E116EBFEC8E
:102DE00014F0156E15501200740E0E6E85EC16F070
:102DF000720E0E6EA1EC16F0790E116E74EC14F0DA
:102E0000780E116EBFEC14F0770E116EBFEC14F05B
:102E1000760E116EBFEC14F0156E15501200740E84
:102E20000E6EBDEC16F0720E0E6E85EC16F0780E7E
:102E3000116E74EC14F0790E116EBFEC14F0770E75
:102E4000116EBFEC14F0760E116EBFEC14F0156E1F
:102E500015501200740E0E6EA1EC16F0720E0E6E6E
:102E6000A1EC16F0790E116E74EC14F0780E116E60
:102E700074EC14F0770E116EBFEC14F0760E116E38
:102E8000BFEC14F0156E15501200740E0E6EBDECF2
:102E900016F0720E0E6EBDEC16F0790E116EBFECD0
:102EA00014F0780E116EBFEC14F0770E116E74EC06
:102EB00014F0760E116E74EC14F0156E15501200AD
:102EC0005F506010D8B467EF17F069EF17F077EF35
:102ED00017F002D875EF17F00500FA6E5F50FD6E1F
:102EE0006050FE6EFF6AFA50120077EF17F0120082
:102EF000800F810F820F830F840F890F8A0F8B0F32
:102F00008C0F8D0F920F930F940F950F960F00005B
:102F1000682F00000000802500000003030001501E
:102F2000D8A495EF17F097EF17F099EF17F0A5EFEA
:102F300017F09EAA9EEF17F0A0EF17F097EF17F08B
:102F40000150D96EDA6AAECFDFFF12009E0E5D6EC1
:102F5000B8EC15F00001D66FD65112004AEC16F00D
:102F60000001D86FD8511200700E016E8FEC17F06F
:0E2F700012002028020A130352429D981200FC
:020000040030CA
:0E000000FF02091EFF8181FF0FC00FE00F40BD
:00000001FF
