:0400000013EF00F00A
:060008005E8214ED13F00E
:100018005E80E0CFD8F0D8C0E0FF5E901000DCEF43
:0200280014F0D2
:10100000003132333435363738392A3023256C6491
:0510100000256900004D
:101016000001F651800B0101706F0001F651F625B3
:101026000101726F0001F5AF1BEF08F01DEF08F02C
:101036001FEF08F00101728101017251D8B426EF49
:1010460008F028EF08F03FEF08F07229D8A42EEF39
:1010560008F030EF08F039EF08F0000E0001F36FEA
:10106600000EF46F000EF56F000EF66F0001F58F9F
:10107600000EF66F48EF08F0000E0001F36F000E49
:10108600F46F000EF56F000EF66FFA51800B01013A
:10109600716F70517119D8B453EF08F055EF08F01D
:1010A60056EF08F0708D0001FA51FA250101716FB3
:1010B6000001F9AF61EF08F063EF08F065EF08F0A3
:1010C6000101718101017151D8B46CEF08F06EEF26
:1010D60008F085EF08F07129D8A474EF08F076EFD0
:1010E60008F07FEF08F0000E0001F76F000EF86FB2
:1010F600000EF96F000EFA6F0001F98F000EFA6FFD
:101106008EEF08F0000E0001F76F000EF86F000E6C
:10111600F96F000EFA6F01017251715DD8B096EF4A
:1011260008F098EF08F0BFEF08F070AD9DEF08F0FB
:101136009FEF08F0A1EF08F0800E701B72C173F1EB
:1011460071C172F173C171F1F3C073F1F7C0F3F0BD
:1011560073C1F7F0F4C073F1F8C0F4F073C1F8F09E
:10116600F5C073F1F9C0F5F073C1F9F0F6C073F18B
:10117600FAC0F6F073C1FAF0000E736F725171C1C6
:10118600FBF00001FC6BFB5F000EFC5BFCBFD5EFC8
:1011960008F0FC5109E11A0EFB5DD8A0D5EF08F066
:1011A600D7EF08F014EF09F0F351F411F511F61129
:1011B600D8A4E0EF08F0E3EF08F0010EE4EF08F042
:1011C600000E0101736F000E0001F36F000EF46F45
:1011D600000EF56F000EF66F71C172F11EEF09F089
:1011E60073A1F8EF08F0FAEF08F000EF09F0D890D5
:1011F60073310109736F02EF09F0D8907333000160
:10120600F3A108EF09F00AEF09F00CEF09F001016C
:10121600738F0001F635F633F533F433F3330101FA
:10122600722B01017151725DD8A01CEF09F01EEFFF
:1012360009F0F3EF08F0010170BD24EF09F026EF85
:1012460009F06DEF09F07251D8A42CEF09F02EEFDA
:1012560009F039EF09F0000E0001F36F000EF46F8C
:10126600000EF56F000EF66FA7EF0AF00001F751BA
:10127600F327F851F423F951F523FA51F623F6A191
:1012860047EF09F049EF09F004EF0AF0010173A1F5
:101296004FEF09F051EF09F057EF09F0D89073318D
:1012A6000109736F59EF09F0D89073330001F3A168
:1012B6005FEF09F061EF09F063EF09F00101738F49
:1012C6000001F635F633F533F433F3330101722BAF
:1012D60004EF0AF00001F751F35DF851F459F951A2
:1012E600F559F651800AFB6FFA51800AFB59D8B0BE
:1012F6007FEF09F081EF09F0AEEF09F0F351F75DEA
:10130600FB6FF451F859FC6FF551F959FD6FF65121
:10131600FA59FE6FFF0EFB25F36FFF0EFC21F46FEB
:10132600FF0EFD21F56FFF0EFE21F66F800E010107
:10133600701B736D7351D8A4A3EF09F0A5EF09F0E4
:10134600B6EF09F0010E0001F327000EF423F52392
:10135600F623B6EF09F0F751F35FF851F45BF95154
:10136600F55BFA51F65B0001F351F411F511F61134
:10137600D8A4C0EF09F0C2EF09F0FCEF09F00101B3
:101386007351D8A4C9EF09F0CBEF09F0FCEF09F0CF
:10139600000E0001F36F000EF46F000EF56F000EE5
:1013A600F66FA7EF0AF0D890F337F437F537F6372C
:1013B600010173AFE1EF09F0E3EF09F0E5EF09F0A2
:1013C6000001F381010173A1EBEF09F0EDEF09F0E4
:1013D600F1EF09F0D8807337F3EF09F0D89073373F
:1013E6007251D8B4F9EF09F0FBEF09F0FCEF09F000
:1013F60072070001F5AF02EF0AF004EF0AF0D6EF2C
:1014060009F0000E0101716F73AF0CEF0AF00EEFD9
:101416000AF028EF0AF073C1FBF07F0E0001FB17FC
:10142600D8B418EF0AF01AEF0AF01FEF0AF0010E0F
:101436000101716F28EF0AF0F3A124EF0AF026EFFD
:101446000AF028EF0AF01AEF0AF001017151D8B438
:101456002FEF0AF031EF0AF05EEF0AF0010E0001FD
:10146600F327000EF423F523F623F6A13DEF0AF049
:101476003FEF0AF05EEF0AF0F3C0FBF0F4C0FCF0B9
:10148600F5C0FDF0F6C0FEF0FE35FE33FD33FC334D
:10149600FB33FBC0F3F0FCC0F4F0FDC0F5F0FEC07A
:1014A600F6F001017229D8B45BEF0AF05DEF0AF09D
:1014B6005EEF0AF0722B01017229D8B465EF0AF0CB
:1014C60067EF0AF06FEF0AF07251D8A46DEF0AF0D9
:1014D6006FEF0AF083EF0AF0000E0001F36F000EC3
:1014E600F46F000EF56F000EF66F01017251D8A46D
:1014F6007FEF0AF081EF0AF083EF0AF0000E706FBB
:1015060072A188EF0AF08AEF0AF08EEF0AF0000166
:10151600F58F90EF0AF00001F59F0101D890723126
:101526000001F66F010170AF9BEF0AF09DEF0AF024
:101536009FEF0AF00001F68FF3C0F3F0F4C0F4F069
:10154600F5C0F5F0F6C0F6F012000450800B0D6EF3
:10155600045004240F6E03AEB3EF0AF0B5EF0AF0A1
:10156600B6EF0AF00F800F50D8B4BCEF0AF0BEEF0A
:101576000AF0D3EF0AF00F28D8A4C4EF0AF0C6EF9A
:101586000AF0CEEF0AF0000E016E000E026E000E9B
:10159600036E000E046E038E000E046EDBEF0AF07F
:1015A600000E016E000E026E000E036E000E046E3B
:1015B6000850800B0E6E0D500E18D8B4E5EF0AF0E9
:1015C600E7EF0AF0E8EF0AF00D8C085008240E6EDB
:1015D60007AEF0EF0AF0F2EF0AF0F3EF0AF00E8032
:1015E6000E50D8B4F9EF0AF0FBEF0AF010EF0BF04B
:1015F6000E28D8A401EF0BF003EF0BF00BEF0BF066
:10160600000E056E000E066E000E076E000E086ECA
:10161600078E000E086E18EF0BF0000E056E000E1A
:10162600066E000E076E000E086E0F500E5CD8B0E8
:101636001FEF0BF021EF0BF048EF0BF00DAC26EF90
:101646000BF028EF0BF02AEF0BF0800E0D1A0FC0EF
:1016560010F00EC00FF010C00EF001C010F005C063
:1016660001F010C005F002C010F006C002F010C074
:1016760006F003C010F007C003F010C007F004C066
:1016860010F008C004F010C008F0000E106E0F50E5
:101696000EC009F00A6A095E000E0A5A0ABE5DEF1C
:1016A6000BF00A5009E11A0E095CD8A05DEF0BF0A9
:1016B6005FEF0BF096EF0BF00150021003100410D1
:1016C600D8A468EF0BF06BEF0BF0010E6CEF0BF08C
:1016D600000E106E000E016E000E026E000E036EFE
:1016E600000E046E0EC00FF09FEF0BF010A07EEF01
:1016F6000BF080EF0BF086EF0BF0D890103001095D
:10170600106E88EF0BF0D890103201A08DEF0BF021
:101716008FEF0BF090EF0BF0108E0434043203328F
:10172600023201320F2A0E500F5CD8A09DEF0BF04B
:101736009FEF0BF079EF0BF00DBCA4EF0BF0A6EFCB
:101746000BF0E6EF0BF00F50D8A4ACEF0BF0AEEFBA
:101756000BF0B8EF0BF0000E016E000E026E000EDD
:10176600036E000E046E07EF0DF0055001260650BD
:101776000222075003220850042204A0C5EF0BF0F2
:10178600C7EF0BF073EF0CF010A0CCEF0BF0CEEF21
:101796000BF0D4EF0BF0D89010300109106ED6EF95
:1017A6000BF0D890103201A0DBEF0BF0DDEF0BF061
:1017B600DEEF0BF0108E04340432033202320132B3
:1017C6000F2A73EF0CF00550015C065002580750C3
:1017D60003580450800A096E0850800A0958D8B088
:1017E600F7EF0BF0F9EF0BF024EF0CF00150055C6E
:1017F600096E025006580A6E035007580B6E0450C5
:1018060008580C6EFF0E0924016EFF0E0A20026EA8
:10181600FF0E0B20036EFF0E0C20046E800E0D1AB9
:10182600106C1050D8A41AEF0CF01CEF0CF02CEF33
:101836000CF0010E0126000E0222032204222CEFD8
:101846000CF00550015E0650025A0750035A085024
:10185600045A0150021003100410D8A435EF0CF0FE
:1018660037EF0CF06CEF0CF01050D8A43DEF0CF0F5
:101876003FEF0CF06CEF0CF0000E016E000E026EE6
:10188600000E036E000E046E07EF0DF0D8900136C1
:1018960002360336043610AE53EF0CF055EF0CF05B
:1018A60056EF0CF0018010A05BEF0CF05DEF0CF032
:1018B60061EF0CF0D880103663EF0CF0D89010363C
:1018C6000F50D8B469EF0CF06BEF0CF06CEF0CF026
:1018D6000F0603AE71EF0CF073EF0CF049EF0CF04E
:1018E600000E0E6E10AE7AEF0CF07CEF0CF094EF5B
:1018F6000CF010C009F07F0E0916D8B485EF0CF075
:1019060087EF0CF08BEF0CF0010E0E6E94EF0CF0DF
:1019160001A090EF0CF092EF0CF094EF0CF087EF33
:101926000CF00E50D8B49AEF0CF09CEF0CF0C7EF09
:101936000CF0010E0126000E02220322042204A04E
:10194600A7EF0CF0A9EF0CF0C7EF0CF001C009F0FF
:1019560002C00AF003C00BF004C00CF00C340C32C9
:101966000B320A32093209C001F00AC002F00BC07C
:1019760003F00CC004F00F28D8B4C4EF0CF0C6EF87
:101986000CF0C7EF0CF00F2A0F28D8B4CDEF0CF0EF
:10199600CFEF0CF0D7EF0CF00F50D8A4D5EF0CF02A
:1019A600D7EF0CF0E9EF0CF0000E016E000E026EA0
:1019B600000E036E000E046E0F50D8A4E5EF0CF077
:1019C600E7EF0CF0E9EF0CF0000E0D6E0FA0EEEF56
:1019D6000CF0F0EF0CF0F3EF0CF0038EF4EF0CF0DC
:1019E600039ED8900F30046E0DAEFCEF0CF0FEEFA8
:1019F6000CF0FFEF0CF0048E01C001F002C002F003
:101A060003C003F004C004F012000001EA51800B89
:101A16000101676F0001EA51EA2501016E6F0001BD
:101A2600E9AF18EF0DF01AEF0DF01CEF0DF0010104
:101A36006E8101016E51D8B423EF0DF025EF0DF044
:101A46003CEF0DF06E29D8A42BEF0DF02DEF0DF025
:101A560036EF0DF0000E0001E76F000EE86F000E86
:101A6600E96F000EEA6F0001E98F000EEA6F45EF9D
:101A76000DF0000E0001E76F000EE86F000EE96F33
:101A8600000EEA6FEE51800B0101671B0001EE515B
:101A9600EE2501016F6F0001EDAF54EF0DF056EF2B
:101AA6000DF058EF0DF001016F8101016F51D8B4AF
:101AB6005FEF0DF061EF0DF078EF0DF06F29D8A410
:101AC60067EF0DF069EF0DF072EF0DF0000E0001FB
:101AD600EB6F000EEC6F000EED6F000EEE6F000167
:101AE600ED8F000EEE6F81EF0DF0000E0001EB6F33
:101AF600000EEC6F000EED6F000EEE6FEB51EC1169
:101B0600ED11EE11D8A48AEF0DF08CEF0DF0A6EFD3
:101B16000DF0000EE76F000EE86F000EE96F000E85
:101B2600EA6F800EE9137F0EEA1301016751000187
:101B3600EA13E7C0E7F0E8C0E8F0E9C0E9F0EAC078
:101B4600EAF01EEF0FF001016E51D8A4ADEF0DF0D3
:101B5600AFEF0DF0BAEF0DF0000E0001E76F000ECB
:101B6600E86F000EE96F000EEA6F1EEF0FF06F517F
:101B76006EC1EFF00001F06BEF5F000EF05B7F0EC1
:101B8600EF250101686F000E0001F0210101696F68
:101B9600E7C063F1E8C064F1E9C065F1EAC066F147
:101BA600000E0001E76F000EE86F000EE96F000EF1
:101BB600EA6F000E01016A6F000E6B6F000E6C6F0C
:101BC600000E6D6F000E6F6F35EF0EF06F51D8B4CB
:101BD600EFEF0DF0F1EF0DF00CEF0EF0D89063374C
:101BE6006437653766370001D890E737E837E93755
:101BF600EA3701016DAF02EF0EF004EF0EF006EFCB
:101C06000EF00001E7810101D8906A376B376C3717
:101C16006D370001EB510101635D0001EC510101DB
:101C260064590001ED51010165590001EE510101B0
:101C36006659D8A021EF0EF023EF0EF034EF0EF028
:101C46006D8D0001EB510101635F0001EC51010153
:101C5600645B0001ED510101655B0001EE5101017C
:101C6600665B6F2B190E6F653BEF0EF03DEF0EF0C6
:101C7600E9EF0DF06351641165116611D8B446EFB2
:101C86000EF048EF0EF063EF0EF06A8163EF0EF090
:101C9600D890E737E837E937EA3701016DAF56EFF5
:101CA6000EF058EF0EF05AEF0EF00001E781010139
:101CB600D8906A376B376C376D376807D8A06907D5
:101CC6000001E9AF69EF0EF06BEF0EF04BEF0EF08F
:101CD600000E01016F6F6DAF73EF0EF075EF0EF032
:101CE600A1EF0EF0FF0E6A150001EF6FFF0E010166
:101CF6006B150001F06FFF0E01016C150001F16F0D
:101D06007F0E01016D150001F26FEF51F011F11117
:101D1600F211D8B491EF0EF093EF0EF098EF0EF0AB
:101D2600010E01016F6FA1EF0EF0E7A19DEF0EF01E
:101D36009FEF0EF0A1EF0EF093EF0EF001016F5141
:101D4600D8B4A8EF0EF0AAEF0EF0D0EF0EF0010E09
:101D56000001E727000EE823E923EA23EAA1B6EF0C
:101D66000EF0B8EF0EF0D0EF0EF0E7C0EFF0E8C0DF
:101D7600F0F0E9C0F1F0EAC0F2F0F235F233F133F7
:101D8600F033EF33EFC0E7F0F0C0E8F0F1C0E9F070
:101D9600F2C0EAF00101684B692B010169BFDCEF73
:101DA6000EF0695108E16829D8A0DCEF0EF0DEEFED
:101DB6000EF0EAEF0EF0000E696F6869000E000182
:101DC600E76F000EE86F000EE96F000EEA6F010183
:101DD60069BFF8EF0EF0695106E16805D8B0F6EF75
:101DE6000EF0F8EF0EF008EF0FF0000E696F000E20
:101DF600686F000E0001E76F000EE86F000EE96FD6
:101E0600000EEA6F000E0101676F68C16EF16EA1E8
:101E16000FEF0FF011EF0FF015EF0FF00001E98F44
:101E260017EF0FF00001E99F0101D8906E31000114
:101E3600EA6F98EF0DF01200000E0101816F7E51DE
:101E4600D8A428EF0FF02AEF0FF02EEF0FF0010EB7
:101E5600816F54EF10F0C69A7E51D96EDA6A0C0E75
:101E6600D926DF507F6FC6507F19F00B7F19C66EDB
:101E7600D6EF0FF0000E0001F76F000EF86F800E20
:101E8600F96FBF0EFA6F01017E51D96EDA6ADECFA5
:101E9600D9F0DECFDAF0DECFDBF0DECFDCF0000EFD
:101EA60057EC10F0D9C0EBF0DAC0ECF0DBC0EDF087
:101EB600DCC0EEF0000E0001E76F240EE86FF40EB2
:101EC600E96F490EEA6F08EC0DF0E7C0F3F0E8C0E1
:101ED600F4F0E9C0F5F0EAC0F6F00BEC08F0F3C058
:101EE60074F1F4C075F1F5C076F1F6C077F10DEC3A
:101EF60012F001017451C86EF8EF0FF07E51D96EE1
:101F0600DA6A0C0ED926DF507F6F806B8051000A8B
:101F1600D8B490EF0FF03DEF0FF07F51080AD8B418
:101F26003DEF0FF0030AD8B4F8EF0FF03DEF0FF0D6
:101F3600C58EC6EF0FF0C59EC6EF0FF0C59EC6EF65
:101F46000FF07E51D96EDA6A0D0ED926DFB6AEEFE6
:101F56000FF0B1EF0FF0010EB2EF0FF0000E7F6F32
:101F6600806B8051000AD8B4BBEF0FF0A1EF0FF0E1
:101F76007F51000AD8B49EEF0FF0010AD8B49BEF48
:101F86000FF0A1EF0FF0C69EC69CC6887E51D96E93
:101F9600DA6A0B0ED926DF50C86EF8EF0FF0010E85
:101FA600816FF8EF0FF07E51D96EDA6A0D0ED926E1
:101FB600DFB0E0EF0FF0E3EF0FF0010EE4EF0FF00C
:101FC600000E7F6F806B8051000AD8B4EDEF0FF0E2
:101FD600D2EF0FF07F51000AD8B4A4EF0FF0010A38
:101FE600D8B481EF0FF0D2EF0FF09488948605EF06
:101FF60010F0C78E2DEF10F0C79E2DEF10F0C79E84
:102006002DEF10F07E51D96EDA6A0D0ED926DFB2A9
:102016000FEF10F012EF10F0010E13EF10F0000E9C
:102026007F6F806B8051000AD8B41CEF10F002EF6E
:1020360010F07F51000AD8B4FFEF0FF0010AD8B4B0
:10204600FCEF0FF002EF10F0C78C4FEF10F0C79CBB
:102056004FEF10F07E51D96EDA6A0D0ED926DFB435
:1020660037EF10F03AEF10F0010E3BEF10F0000ED4
:102076007F6F806B8051000AD8B444EF10F02AEFCE
:1020860010F07F51000AD8B42AEF10F0010AD8B434
:1020960027EF10F02AEF10F07EC1D9F057EC14F0BC
:1020A600C68A0101815112000001E16F0001E15170
:1020B600D8B460EF10F062EF10F084EF10F0DCBFE0
:1020C60069EF10F067EF10F084EF10F0D9C0DDF083
:1020D600DAC0DEF0DBC0DFF0DCC0E0F0DD1FDE1FC3
:1020E600DF1FE01FDD2B000EDE23DF23E023DDC034
:1020F600E3F0DEC0E4F0DFC0E5F0E0C0E6F08CEF30
:1021060010F0D9C0E3F0DAC0E4F0DBC0E5F0DCC0E3
:10211600E6F0D951DA11DB11DC11D8A495EF10F0F5
:1021260097EF10F0A1EF10F0000ED96F000EDA6FE6
:10213600000EDB6F000EDC6F32EF11F0960EE26FD1
:10214600ABEF10F0E22BD890E633E533E433E3331C
:10215600000EE315DD6F000EE415DE6F000EE515CB
:10216600DF6FFE0EE615E06FDD51DE11DF11E011C7
:10217600D8A4C0EF10F0C2EF10F0A5EF10F0D0EF2A
:1021860010F0E22B010EE327000EE423E523E623FD
:10219600D890E633E533E433E333000EE315DD6F21
:1021A600000EE415DE6F000EE515DF6FFF0EE61577
:1021B600E06FDD51DE11DF11E011D8A4E5EF10F07C
:1021C600E7EF10F0C4EF10F0EFEF10F0E207D89051
:1021D600E337E437E537E637E5BFF4EF10F0F6EF1F
:1021E60010F0FEEF10F0020EE261FCEF10F0FEEFD1
:1021F60010F0E9EF10F0E2B103EF11F005EF11F086
:1022060006EF11F0E59FD890E233E2C0DDF0DE6B19
:10221600DF6BE06BDDC0E0F0DF6BDE6BDD6BDD51AD
:10222600E313DE51E413DF51E513E051E613E15108
:10223600D8B420EF11F022EF11F02AEF11F0DCBF35
:1022460029EF11F027EF11F02AEF11F0E68FE3C026
:10225600D9F0E4C0DAF0E5C0DBF0E6C0DCF012004D
:10226600096E0950D8B43AEF11F03CEF11F05EEF69
:1022760011F004BE43EF11F041EF11F05EEF11F0E3
:1022860001C005F002C006F003C007F004C008F064
:10229600051E061E071E081E052A000E0622072218
:1022A600082205C00BF006C00CF007C00DF008C0F0
:1022B6000EF066EF11F001C00BF002C00CF003C087
:1022C6000DF004C00EF00150021003100410D8A443
:1022D6006FEF11F071EF11F07BEF11F0000E016E50
:1022E600000E026E000E036E000E046E0CEF12F06E
:1022F600960E0A6E85EF11F00A2AD8900E320D322C
:102306000C320B32000E0B14056E000E0C14066E0A
:10231600000E0D14076EFE0E0E14086E0550061004
:1023260007100810D8A49AEF11F09CEF11F07FEF78
:1023360011F0AAEF11F00A2A010E0B26000E0C224C
:102346000D220E22D8900E320D320C320B32000EB8
:102356000B14056E000E0C14066E000E0D14076E9F
:10236600FF0E0E14086E0550061007100810D8A4AC
:10237600BFEF11F0C1EF11F09EEF11F0C9EF11F0B0
:102386000A06D8900B360C360D360E360DBECEEF3D
:1023960011F0D0EF11F0D8EF11F0020E0A60D6EF6F
:1023A60011F0D8EF11F0C3EF11F00AB0DDEF11F024
:1023B600DFEF11F0E0EF11F00D9ED8900A320AC05F
:1023C60005F0066A076A086A05C008F0076A066A21
:1023D600056A05500B1206500C1207500D120850D4
:1023E6000E120950D8B4FAEF11F0FCEF11F004EF19
:1023F60012F004BE03EF12F001EF12F004EF12F038
:102406000E8E0BC001F00CC002F00DC003F00EC022
:1024160004F012000101763577357D6F7D51D8A421
:1024260017EF12F019EF12F023EF12F0000E746F8F
:10243600000E756F000E766F000E776F90EF12F03C
:1024460074C178F175C179F176C17AF177C17BF102
:10245600200E33EF12F0D8907B337A33793378330A
:10246600E82E2EEF12F078517C6F768FFF0E7417E0
:10247600FF0E7517FF0E7617000E7717960E7D5F07
:102486007DBF4AEF12F048EF12F060EF12F07D5177
:10249600800A970FD8B052EF12F054EF12F056EFB1
:1024A60012F019EF12F0D890773376337533743310
:1024B6007D3F56EF12F078EF12F01F0E7D6566EF46
:1024C60012F068EF12F070EF12F019EF12F0D890D8
:1024D60074377537763777377D077D51D8A476EF11
:1024E60012F078EF12F06AEF12F07C51D8B47EEF5A
:1024F60012F080EF12F088EF12F0771F761F751F2B
:10250600746D000E75237623772374C174F175C13B
:1025160075F176C176F177C177F112001B341C3460
:10252600226E2250D8A49AEF12F09CEF12F0A6EF7A
:1025360012F0000E196E000E1A6E000E1B6E000EC3
:102546001C6E13EF13F019C01DF01AC01EF01BC04D
:102556001FF01CC020F0200EB6EF12F0D8902032EB
:102566001F321E321D32E82EB1EF12F01D50216EC1
:102576001B8EFF0E1916FF0E1A16FF0E1B16000EE7
:102586001C16960E225E22BECDEF12F0CBEF12F095
:10259600E3EF12F02250800A970FD8B0D5EF12F071
:1025A600D7EF12F0D9EF12F09CEF12F0D8901C3250
:1025B6001B321A321932223ED9EF12F0FBEF12F01B
:1025C6001F0E2264E9EF12F0EBEF12F0F3EF12F0B8
:1025D6009CEF12F0D89019361A361B361C36220696
:1025E6002250D8A4F9EF12F0FBEF12F0EDEF12F043
:1025F6002150D8B401EF13F003EF13F00BEF13F0F3
:102606001C1E1B1E1A1E196C000E1A221B221C22CF
:1026160019C019F01AC01AF01BC01BF01CC01CF020
:1026260012000600FACF2CF0FBCF2DF0D9CF2EF0FA
:10263600DACF2FF09EAC22EF13F024EF13F026EF43
:1026460013F0BDEC16F0F2A42BEF13F02DEF13F000
:102656002FEF13F095EC16F09EA034EF13F036EF43
:1026660013F038EF13F0A8EC16F09EA23DEF13F02E
:102676003FEF13F041EF13F0B3EC16F0A1A246EFD3
:1026860013F048EF13F04AEF13F0A2EC16F09DA4F6
:102696004FEF13F051EF13F05AEF13F09EA456EFDD
:1026A60013F058EF13F05AEF13F029EC16F0A1A02F
:1026B6005FEF13F061EF13F063EF13F06FEC16F0BA
:1026C6009DA868EF13F06AEF13F073EF13F09EA85E
:1026D6006FEF13F071EF13F073EF13F0BBEC16F01E
:1026E6009DAA78EF13F07AEF13F083EF13F09EAA0A
:1026F6007FEF13F081EF13F083EF13F010EC16F079
:102706009EA688EF13F08AEF13F08CEF13F0B7EC68
:1027160016F02FC0DAFF2EC0D9FF2DC0FBFF2CC04C
:10272600FAFF5E921100990E01017E6F1FEC0FF009
:10273600990E0001DD6F610EDE6F150EDF6F4FEC37
:1027460015F00B0E0101836F260E826F5D0EE82ECB
:10275600FED7822FFCD7832FFAD700D0990E00011F
:10276600DD6F630EDE6F300EDF6F4FEC15F01F0E60
:102776000101836F710E826F1E0EE82EFED7822F27
:10278600FCD7832FFAD70000990E0001DD6F620E89
:10279600DE6F150EDF6F4FEC15F00B0E0101836F28
:1027A600260E826F5D0EE82EFED7822FFCD7832F72
:1027B600FAD700D0990E0001DD6F640EDE6F300E81
:1027C600DF6F4FEC15F00B0E0101836F260E826F43
:1027D6005D0EE82EFED7822FFCD7832FFAD700D0C6
:1027E6009BEF13F013EF00F0482AA70E016E000EC0
:1027F600036E000E026E86EC16F04804D8A406EFAF
:1028060014F008EF14F018EF14F0550E236E010EB5
:10281600246E52C025F053C026F09AEC14F0BD5039
:10282600F00B0909BD6E56EF14F0020E4818D8A435
:102836001FEF14F021EF14F056EF14F0550E236E2F
:10284600010E246E52C001F053C002F0036A046AFE
:10285600000E33EC11F001C015F002C016F003C0F3
:1028660017F004C018F0000E116E000E126E7A0EEC
:10287600136E450E146EEDEC15F011C019F012C072
:102886001AF013C01BF014C01CF091EC12F019C022
:1028960025F01AC026F09AEC14F0BD50F00B08098A
:1028A600BD6E000E486E1200F28EF28C9D869E96CC
:1028B6000001D951D96EDA6A080ED926DECFD2F0D8
:1028C600DDCFD3F0D951D96EDA6A040ED926DECF20
:1028D600D0F0DDCFD1F0D951D96EDA6A060ED926FD
:1028E600DECFCEF0DDCFCFF0D08ED951D96EDA6AF9
:1028F6000A0ED926DE04D8A483EF14F085EF14F06F
:1029060088EF14F09F8699EF14F0D951D96EDA6AE0
:102916000A0ED926DF50D8A493EF14F095EF14F0E1
:1029260098EF14F09F9699EF14F09F861200000E10
:10293600296E23502410D8A4A3EF14F0A5EF14F0A9
:10294600A9EF14F0010E296EDAEF14F0BFEF14F0C0
:1029560025C02AF026C02BF02AC0BEFF2BC0BFFF21
:10296600DAEF14F025C02AF026C02BF02AC0BBFFF0
:102976002BC0BCFFDAEF14F020EE0BF02350D92663
:102986002450DA22DF50276E286A2850000AD8B46D
:10299600CFEF14F0A5EF14F02750000AD8B4ABEF30
:1029A60014F0010AD8B4B5EF14F0A5EF14F02950CD
:1029B60012003A0EF66E2A0EF76E000EF86E01EE53
:1029C60000F010EE63F00900F5CFEEFFE550E150A0
:1029D600FAE1820EF66E2C0EF76E000EF86E00EE21
:1029E60080F010EE2EF00900F5CFEEFFE550E15035
:1029F600FAE1380EF66E2D0EF76E000EF86E00EE4A
:102A060052F010EE0CF00900F5CFEEFFE550E15064
:102A1600FAE100EEAEF02A0EEE6AE806FDE100EEFF
:102A260030F0220EEE6AE806FDE15E905E9200014D
:102A360096EF13F0800F810F820F830F840F323AC7
:102A4600030B131B232B333B030B131B636B73000B
:102A56000000006101000051000200000049010170
:102A660001000041010001020A121A222A0109117D
:102A76001900030B131B0000005C2D0000000080F2
:102A8600250000000103010300EE270108000000F5
:072A96000000000000011226
:102A9E000001DD51D8A456EF15F058EF15F05CEF9C
:102AAE0015F0010EE06F7CEF15F0000EE16FDDC04A
:102ABE00D9F0CAEC15F0DDC0D9F00001DF51020DDE
:102ACE00F3CFDAF0E10EDB6F7EEC15F0DDC0D9F05E
:102ADE00DEC0DAF0E10E0001DB6F7EEC15F0DDC03A
:102AEE00D9F0A7EC15F00001E06FE0511200000ED6
:102AFE000001DC6FD951D8A487EF15F089EF15F0DE
:102B0E008DEF15F0010EDC6FA5EF15F0DAC0C9FFE1
:102B1E00C7B094EF15F096EF15F08FEF15F09E9667
:102B2E000001DB51D96EDA6AC5BCA0EF15F0A3EF38
:102B3E0015F0010EA4EF15F0000EDF6EDC51120041
:102B4E000001D951D8A4AEEF15F0B0EF15F0B5EFE6
:102B5E0015F0010E0001DA6FC8EF15F0C584C5B48B
:102B6E00BBEF15F0BDEF15F0B6EF15F09E96C7A8AA
:102B7E00C3EF15F0C5EF15F0B0EF15F0000E000124
:102B8E00DA6FDA5112000001D951D8A4D1EF15F045
:102B9E00D3EF15F0D8EF15F0010E0001DA6FEBEF61
:102BAE0015F0C580C5B0DEEF15F0E0EF15F0D9EFEA
:102BBE0015F09E96C7A6E6EF15F0E8EF15F0D3EFE9
:102BCE0015F0000E0001DA6FDA511200000E151A20
:102BDE00000E161A000E171A800E181A11C001F0E8
:102BEE0012C002F013C003F014C004F015C005F0BB
:102BFE0016C006F017C007F018C008F0A8EC0AF0CF
:102C0E0001C011F002C012F003C013F004C014F0A2
:102C1E0012000001B851B911D8B418EF16F01AEF1E
:102C2E0016F028EF16F002D826EF16F00500FA6E11
:102C3E00B851FD6EB951FE6EFF6AFA50120028EFC0
:102C4E0016F012009E949E9444504510D8B432EF64
:102C5E0016F034EF16F040EF16F002D840EF16F0F3
:102C6E000500FA6E4450FD6E4550FE6EFF6AFA5036
:102C7E0012001200890F8A0F8B0F8C0F8D0F920F7F
:102C8E00930F940F950F960F0008101800A0860151
:102C9E00000000000000000100080100000100001B
:102CAE0000040150D8A45EEF16F060EF16F062EF4C
:102CBE0016F06EEF16F09EAA67EF16F069EF16F09B
:102CCE0060EF16F00150D96EDA6AAECFDFFF120058
:102CDE00A19042504310D8B477EF16F079EF16F06A
:102CEE0085EF16F002D885EF16F00500FA6E425009
:102CFE00FD6E4350FE6EFF6AFA5012001200015034
:102D0E00D8A48CEF16F08EEF16F090EF16F094EF2D
:102D1E0016F002C0B2FF03C0B3FF1200F29400011E
:102D2E00C751D76EC6C0D6FF120008072A221A1244
:102D3E000A0232221203A192BCC0B2FFBDC0B3FF81
:102D4E0012009E90C2C0CEFFC3C0CFFF1200510E24
:102D5E00016E58EC16F012009E9247C0CCFF120086
:102D6E00C6989E96C68812009D9812009E9C1200D0
:020000040030CA
:0E000000FF02091EFF8181FF0FC00FE00F40BD
:00000001FF
